:020000040800F2
:1000000000C00020A9720008E17200084542000803
:10001000E1720008E1720008E172000800000000CF
:10002000000000000000000000000000454500083E
:10003000E172000800000000EB4500084B46000894
:10004000E1720008E1720008E1720008E172000844
:10005000E1720008E1720008E1720008E172000834
:10006000E1720008E1720008E1720008E172000824
:10007000E1720008E1720008E1720008E172000814
:10008000E1720008E1720008E17200089D5B00085F
:10009000A15B0008E17200089D5A0008E1720008A7
:1000A000E1720008E1720008E1720008E1720008E4
:1000B000E17200080000000000000000E17200088A
:1000C000E17200080000000000000000E17200087A
:1000D00000000000E1720008E1720008000000006A
:1000E000E1720008E172000800000000000000005A
:1000F0000000000000000000000000000000000000
:10010000000000000000000000000000E172000894
:100110000000000000000000E1720008E172000829
:10012000E1720008E1720008E1720008E172000863
:10013000E172000800000000000000000000000064
:10014000E1720008E1720008E1720008E172000843
:10015000E1720008E1720008E1720008E172000833
:10016000E1720008E1720008E1720008000000007E
:10017000E1720008E17200080000000000000000C9
:10018000E1720008E1720008E172000810B5054C48
:10019000237833B9044B13B10448AFF30080012333
:1001A000237010BD400A002000000000C098010824
:1001B000084B10B51BB108490848AFF30080084848
:1001C000036803B910BD074B002BFBD0BDE81040FE
:1001D000184700BF00000000440A0020C098010832
:1001E0003C0A002000000000154B002B08BF134BF9
:1001F0009D46A3F5803A00218B460F461348144ACA
:10020000121A0BF013F90F4B002B00D098470E4B2E
:10021000002B00D098470020002104000D000D485D
:10022000002802D00C4806F044F90AF0CFFD200067
:10023000290006F06FFA06F039F900BF0000080047
:1002400000C000200000000005670008400A0020F0
:10025000B82F0020B36400080000000038B5044641
:1002600003691546426800681A6003681B6898476E
:100270002068036829461B689847E36862681A602B
:1002800038BD000070B50546044645F8041B164607
:1002900000211C2228460BF0C9F83146284609F0F7
:1002A00006F8002323626362A362E36862681A604F
:1002B00020680322082109F0A9FB20680C4909F0F5
:1002C000C7FB204600222D21FFF7C8FF20460B2246
:1002D0003121FFF7C3FF20460A222C21FFF7BEFF82
:1002E000204608222D21FFF7B9FF204670BD00BF30
:1002F00040420F00034610B107C983E8070070476A
:10030000704742680368806812F0010F4FEA62028A
:1003100018BF8158104418BFCB5818472DE9F04733
:10032000044672B6DFF88C80002604F6681704F6DF
:100330008A190025206809F089FA18B90135454560
:10034000F8D121E020684C3009F02AFF824620686D
:1003500009F07CFA18B901354545F8D114E0206858
:100360004C3009F01DFFC0B200EB0A2027F8020F45
:100370004F45DED16068B4F86A19F500284405F0ED
:1003800075FBB4F86A392BB9012384F8683962B671
:10039000BDE8F08704F66A170021606837F8022F7D
:1003A00001F10109284405F05DFB49461129F4D10A
:1003B0000136BAE7A086010041607047034600227B
:1003C00090F8680983F868297047000030B5002567
:1003D00085B0044680F868594FF4E131006809F0AF
:1003E0000BFA144B206802948DE828002A46124B21
:1003F0000393694609F08AFA039B13B19B68684628
:100400009847234604F51661002000229D1801320A
:10041000782A2872FAD178339942F6D104F6681313
:10042000002204F68A1423F8022F9C42FBD105B067
:1004300030BD00BF1D0300081877010810B5044641
:100440000160FFF7C3FF204610BD38B504460369BD
:100450001546426800681A6003681B689847206860
:10046000036829461B689847E36862681A6038BDCC
:1004700010B542680369044600681A60036841F0D9
:1004800080011B6898472068036800211B68984713
:10049000E36862681A60C0B210BD000070B505461E
:1004A000044645F8041B164600211C2228460AF083
:1004B000BDFF3146284608F0FAFE0023236263623E
:1004C000A362E36862681A6020680F4909F0C0FA05
:1004D00020680322082109F099FA236962681A60EA
:1004E0000F212046FFF7C4FFE36862681A602046C8
:1004F0000F222021FFF7A9FF204600222321FFF72A
:10050000A4FF204670BD00BF40420F000000000065
:10051000F8B529210546FFF7ABFF282104462846F8
:10052000FFF7A6FF240200FA84F015F087FD0FA361
:10053000D3E9002315F0E8FD0EA3D3E9002315F05D
:10054000E3FD0022084B15F009FF0646286A0F4616
:1005500015F086FD02460B463046394615F020FC64
:1005600016F0CAF8F8BD00BF00806640EC51B81E16
:1005700085EB813F182D4454FB2109400000000009
:10058000F8B52B210546FFF773FF2A2104462846BC
:10059000FFF76EFF240200FA84F015F04FFD0FA361
:1005A000D3E9002315F0B0FD0EA3D3E9002315F025
:1005B000ABFD0022084B15F0D1FE0646686A0F46D7
:1005C00015F04EFD02460B463046394615F0E8FB65
:1005D00016F092F8F8BD00BF00806640EC51B81EDE
:1005E00085EB813F182D4454FB2109400000000099
:1005F000F8B52D210546FFF73BFF2C210446284680
:10060000FFF736FF240200FA84F015F017FD0FA360
:10061000D3E9002315F078FD0EA3D3E9002315F0EC
:1006200073FD0022084B15F099FE0646A86A0F4696
:1006300015F016FD02460B463046394615F0B0FB64
:1006400016F05AF8F8BD00BF00806640EC51B81EA5
:1006500085EB813F182D4454FB21094030B52DED29
:10066000048B9FED1F8A83B0044680ED0A8A80EDDB
:10067000098A80ED088A0025F0EE488AB0EE489A93
:100680008D4218DA20460191FFF742FF07EE900AEB
:10069000204639EE279AFFF773FF07EE900A2046AF
:1006A00078EEA78AFFF7A4FF07EE900A013538EE2F
:1006B000278A0199E4E707EE901AF8EEE77A89EEC7
:1006C000277A84ED087A88EEA77A84ED097A88EE95
:1006D000277A84ED0A7A03B0BDEC048B30BD00BFED
:1006E000000000007F2810B516D931B1FF2812D8BC
:1006F0000A4B803833F8100010BD084A32F8114018
:1007000084428BB203D001318029F7D10B4603F12B
:100710008000C0B210BD002010BD00BF24770108CA
:100720007F2870B506D8A0F16103192B17D820389F
:1007300080B270BD0A4D0C2200214FF4F774631A89
:1007400001EB530335F81360B04205D094BF1C464B
:100750001946013AF3D170BD024A32F8130070BD58
:10076000007C01082478010808B5044B53F82000E8
:1007700003689B6B9847C0B208BD00BF640C0020A3
:1007800008B5044B53F8200003685B6B9847C0B270
:1007900008BD00BF640C002010B5054C54F82000C3
:1007A0000468E46BA047002814BF0420002010BD9B
:1007B000640C002010B5054C54F820000468246C2B
:1007C000A047002814BF0420002010BD640C0020A6
:1007D000012938B50C46154610D004D3032918D189
:1007E0000123136013E00E4B53F8200098B1036807
:1007F0005B6C9847003018BF012038BD084B53F898
:10080000200040B103689B6C984730B128600020FD
:1008100038BD042038BD032038BD204638BD00BF98
:10082000640C002001380A44914204D011F8013BC5
:1008300000F8013FF8E770470244904202D000F808
:10084000011BFAE7704700F10B01002310F8012BA0
:1008500002EBC31202EB5303884203F0FF03F5D10E
:1008600018467047026810B58AB111460B4611F858
:10087000014B1F2C09D93A2CF8D1511C8B4206D1BF
:100880001278302A03D101330360002010BD4FF0ED
:10089000FF3010BD08B568B103685BB11A784AB182
:1008A000D9888288914205D15878FFF75DFF10F012
:1008B000010000D0092008BD03692DE9F0410D4673
:1008C0000931002B35D042690024561E2E2716F818
:1008D000013F202B04F1010410D10B2CF7D1D37A66
:1008E0002B72D3692B60547E137E43EA0423AB80C2
:1008F000D47D937D43EA0423EB801AE0052B3CD0A2
:10090000092C01D10F700131A3F1410EBEF1190F75
:100910000CD8082C92F80CE08CBF4FF0100C4FF064
:10092000080C1CEA0E0F1CBF2033DBB20B70013128
:10093000D3E700240C70AE6926B30369C3B1EB6939
:10094000B3B1028C4FF6FF739A4211D0D0F81C80DD
:10095000771E38F8140060B10021FFF7C3FE38B1EC
:10096000EB69013B9C4203D2013407F8010FF0E729
:10097000002400233355BDE8F081092C4FF0E50336
:10098000D4D1BFE7BDE8F081CA7E8B7E032843EA5D
:10099000022301BF487D0A7D42EA002243EA024366
:1009A00018467047F8B5C56A00F1300704460123C0
:1009B0002A4639464078FFF7FDFEA0B9236AA269AE
:1009C0002071EB1A934201D30020F8BDE678012E86
:1009D000FAD9A36960781D442A4601233946FFF7F6
:1009E000E9FE013EF3E70120F8BD03790BB1FFF703
:1009F000D9BF1846704770B50446FFF7F6FF0546A5
:100A000000284FD12378032B44D16379012B41D1A6
:100A100004F1300601464FF400723046FFF70CFF38
:100A2000552284F82E22AA2284F82F22522284F8FA
:100A3000302084F83120612284F8322084F8172293
:100A4000226984F81822412184F8331084F81612A0
:100A5000111284F81912110C120E84F81B22E2688C
:100A600084F81A12111284F81C2284F81D12110C39
:100A7000120E84F81F22E26984F81E1272200132DD
:100A800084F8140284F81502E26231466078FFF7B8
:100A900091FE6571002211466078FFF799FE0030E3
:100AA00018BF012070BDC36A8B4270B506460D4663
:100AB00011D0FFF79AFF044670B92A46012306F1C8
:100AC00030017078FFF768FE00281CBF4FF0FF353B
:100AD0000124F56200E00024204670BD002310B51B
:100AE00003714FF0FF33C3620446FFF7DCFFC0B968
:100AF00094F82F2294F82E3243EA02234AF6552224
:100B0000934210D1D4F86630084A23F07F439342D1
:100B10000AD0D4F8820020F07F40801A18BF01204C
:100B200010BD032010BD022010BD00BF464154007F
:100B30002DE9FF4100230360074608461546FFF7ED
:100B400091FE061EC0F21081914B53F82640002CF6
:100B500000F00C813C60237883B16078FFF704FEDD
:100B6000C1070BD4002D00F0038100F0040303F053
:100B7000FF00002B00F008810A2005E10023F0B2FD
:100B800023706070FFF7FCFDC20700F1F3800DB128
:100B90004307F1D400212046FFF7A0FF01281CD114
:100BA00004F5FB71002211F8043C03B10B684DF809
:100BB00022300132042A01F11001F4D100265DF83F
:100BC00026502DB129462046FFF788FF60B100E08E
:100BD00002200136042EF2D1CEE0032800F0CF80AF
:100BE00008B10D20D0E0054694F83C2094F83B3045
:100BF00043EA0223B3F5007FF3D194F8463094F82A
:100C000040C094F8470084F803C053EA00200CF178
:100C1000FF3308BF606DA061012BE2D894F83D302E
:100C2000A370002BDDD05A1E1A42DAD194F842E0AC
:100C300094F8412042EA0E2E1EF00F0FA4F808E0AF
:100C4000CFD194F8441094F8432094F83F6052EACE
:100C5000012294F83E1008BF226D51EA0621C0D04F
:100C600000FB0CFC01EB1E176744BA42B9D3D21B40
:100C7000B2FBF3F3002BB4D040F6F572934203F1CC
:100C8000020605EB01022F4410D94FF6F5718B4295
:100C900077D96661E5612262A762BEF1000FA0D13B
:100CA000E36D63624FF00308B30018E04FF00108F2
:100CB0006661E5612262A762BEF1000F91D0B8F1D2
:100CC000020F4FEA460318BF9B19624418BF06F093
:100CD000010662621CBF06EB53034FF0010803F2EA
:100CE000FF13B0EB532FFFF47CAF4FF0FF332361C2
:100CF000E360B8F1030F4FF0800363712AD194F8D9
:100D0000612094F8603043EA0223012B22D1691C50
:100D10002046FFF7C8FEE8B994F82F2294F82E3247
:100D2000607143EA02234AF65522934212D1226BA4
:100D3000184B9A420ED103F1FF53D4F8142203F555
:100D4000005320339A4201BFD4F818322361D4F8FB
:100D50001C32E360104A84F80080138801339BB290
:100D60001380E38000200FE00B200DE00C200BE04F
:100D7000284609E0032007E003287FF432AF012072
:100D800002E04FF0020893E704B0BDE8F08100BF35
:100D9000600A0020525261415C0A00204369023916
:100DA000023B99423DBF8378806A01FB030000202B
:100DB00070470129F8B506460C465DD9436999424A
:100DC0005AD20378022B29D0032B39D0012B53D1CF
:100DD00001EB5105016A01EB5521FFF764FE10B1EB
:100DE0004FF0FF30F8BD6F1C316AC5F3080535447C
:100DF00001EB5721304695F83050FFF754FE00289C
:100E0000EED1C7F308073E44E30796F8300045EA01
:100E100000204CBF0009C0F30B00F8BD016A01EBD4
:100E20001421FFF740FE0028DAD1640004F4FF74B7
:100E3000331993F8310093F8303043EA0020F8BDBD
:100E4000016A01EBD411FFF72EFE0028C8D1A300E0
:100E500003F4FE7404F13003334434449878DA78B0
:100E60005B78000440EA026040EA032094F83030E6
:100E7000184320F07040F8BD0120F8BD826870B5BD
:100E80000446012A0D46E18001D1022070BD0368AD
:100E900059698A42F9D252B91978032901D1596A9C
:100EA00021B919898D42F0D2586A15E00A469E7818
:100EB0003601B542114620680CD3FFF77AFF431C78
:100EC000024618D00128E0D923685B699842DCD239
:100ED000AD1BEEE7FFF762FFE2600028D5D0236884
:100EE00000EB1510303305F00F0503EB45152061BD
:100EF0006561002070BD012070BD01292DE9F04120
:100F000006460C4615466FD9436999426CD2037860
:100F1000022B3BD0032B49D0012B65D101EB5107AC
:100F2000016A01EB5721FFF7BEFD00285DD107F1F3
:100F30000108C7F30807374414F001041FBF97F8EE
:100F4000303003F00F022B0103F0F00314BF134302
:100F5000EBB287F83030316A0123337101EB58214D
:100F60003046FFF7A0FD00283FD1C8F30803334403
:100F700014B1C5F3071506E093F83020C5F3032537
:100F800022F00F02154383F8305029E0016A01EB8B
:100F90001421FFF788FD40BB640004F4FF7433198B
:100FA00083F830502D1283F8315019E0016A01EBBB
:100FB000D411FFF778FDC0B9A40004F4FE7404F165
:100FC000300333443444DA78120602F07042154399
:100FD0002A1284F830505A702A0C2D0E9A70DD7047
:100FE00001233371BDE8F0810220BDE8F081F8B53E
:100FF00005460F4631B9C66896B143699E4228BF7F
:1010000001260EE0FFF7D5FE01283FD9441C02D18E
:101010004FF0FF30F8BD6B69984238D33E4600E090
:10102000012634466B6901349C4204D3012E01D859
:101030000020F8BD022421462846FFF7BAFE30B151
:10104000411CE5D0012821D0B442EBD1F0E76FF08C
:10105000704221462846FFF750FFA8B957B92B69BF
:10106000EC605A1C0ED0013B2B616B7943F00103FD
:101070006B7107E0224639462846FFF73EFF0028FD
:10108000EDD001E02046F8BD0128C1D00120F8BD17
:101090002DE9F843C6880136B3B204460F4613B9AA
:1010A0000420BDE8F8830369002BF9D016F00F087F
:1010B00059D1C16801330361006819B903899E429F
:1010C000EED250E08378013B13EA16134BD1FFF7C1
:1010D00070FE0128054602D80220BDE8F883421CB4
:1010E00002D10120BDE8F883206843699D4234D3D2
:1010F000002FD5D0E168FFF77AFF054600283BD0E6
:101100000128E9D0431CECD02068FFF76EFC0746AD
:101110000028E6D120684FF4007239463030FFF7DE
:101120008BFB226829461046FFF738FE4FF0010975
:10113000D06223689A7897420CD283F80490206892
:10114000FFF753FC0028CCD12268D36A0133D36265
:101150000137EEE7DA6AD71BDF62E56029462068CF
:10116000FFF71CFE20612368E680303303EB481351
:1011700063610020BDE8F8830720BDE8F883000024
:101180002DE9F74F4FF6FF784FF0FF090646A0F81C
:1011900020804C4631693068FFF785FC002840F01C
:1011A000868075692B78002B6BD0E52B7CD0E97A93
:1011B00001F03F02090702D50F2A75D101E00F2A7D
:1011C0004ED1D6F81CB0BBF1000F53D05F0605D549
:1011D00003F0BF04F3886A7B338402E0A34248D162
:1011E0004A4695F80D90914542D1EF7EAB7E43EA99
:1011F00007273FB2002F3CD12B7803F03F03013B80
:101200000D2202FB03FA01212A4BF85C2A1892F8FE
:1012100001E02A5C42EA0E2299B1BAF1FE0F28D809
:1012200010460192FFF77CFA00903BF81A00FFF796
:1012300077FA0099019A81421BD10AF1010A1146FD
:1012400001E0424515D101370D2FDDD12A78500636
:1012500003D511B13BF81A305BB9013CE4B209E0A7
:101260008CB92846FFF7EFFA48450CD120461EE01E
:101270009146FF2400213046FFF70AFF002889D05D
:1012800015E0042013E0B369DA7AD2070CD405F133
:101290000B02954206D015F8010B13F8011B88428A
:1012A000F7D001E0002002E0A6F82080E1E703B0DB
:1012B000BDE8F08FDC7F01082DE9F74F0B782F2B6D
:1012C0000746884601D05C2B01D108F101080024B3
:1012D000BC6098F800301F2B5DD821463846FFF7D8
:1012E000CDFD7C6112E101313BF81120202AFAD0BA
:1012F0002E2AF8D009B144F003044A4632F8020D10
:101300002E2840F096804FF0000A4FF0080955460D
:101310003BF811004A1C002840F08F80BB691A7806
:10132000E52A04BF05221A70B9F1080F04BFAD0009
:10133000EDB205F00C030C2B00F0CC8005F003029D
:10134000032A00F0C780A10709D405F00305012D89
:1013500008BF44F01004042B08BF44F00804BB6924
:101360000021DC723846FFF789FD10B93846FFF7D7
:1013700007FFBB69DB7A002840F0AF805A0700F115
:10138000C5807969CB7ADB0640F1AE803B6818787E
:10139000FFF7FAFAB86098F800302F2B444608F1AE
:1013A0000108F8D05C2BF6D0D7F81CB004F1FF3957
:1013B000ABF10205002619F8010F1F2806F10108FC
:1013C0001AD92F2818D05C2816D0B8F5807F00F0E5
:1013D0008D800121FFF786F9002800F087807F28A3
:1013E00006D84C4911F8012F12B19042FAD17DE094
:1013F00025F8020F4646DEE72028A0440BEB460204
:1014000034BF04240024002E70D032F8021D20299D
:1014100001D02E2901D1013EF5E7002520212BF82E
:1014200016500B22B869FFF707FA0BEB460929465D
:101430005AE7013E7FF462AF65E7202803D02E28EB
:1014400005D1B24208D044F00304114660E7CA4512
:1014500004D2B24218D14BE0CA4549D3B9F10B0FBF
:1014600004D144F003044FF00B0957E7B24203D014
:1014700044F003043FF652AFAD00EDB232464FF0F8
:101480000B094FF0080AE0E77F280CD900210192F0
:10149000FFF728F9019A18B11F4B184410F8800C77
:1014A00044F0020428B11D4B13F8011F29B18842F2
:1014B000FAD144F003045F2006E0A0F1410189B2B3
:1014C000192919D845F00205B96901F80A000AF18D
:1014D000010ABAE744F0020435E7042816D113F0F4
:1014E000040F08BF052011E005200FE006200DE0E5
:1014F000B9F10B0FC0D1B4E7A0F1610189B219298C
:101500009EBF203845F0010580B2DDE703B0BDE89D
:10151000F08F00BFE87F010844800108F17F0108D7
:101520002DE9F04F8469C66987B00C220546214633
:101530000DEB0200FFF776F99DF81730DB0762D557
:101540000023E3720127EB610B2203A92046FFF77A
:1015500069F9052F15D9B01E3B4630F8022F8AB124
:10156000102102F0010E0EEB430313F4803F1CBF69
:1015700083F4883383F0210301394FEA5202F0D11A
:10158000EBE73B46072203F00F0000F13001392959
:1015900088BF00F13701013A01A810441B094170CE
:1015A000F1D106A911447E2001F8140C9A4202D010
:1015B000E15C202901D1234401E00133F6E7072A49
:1015C0009BBF06A98918202111F8141C03F8011BE0
:1015D000A3EB040198BF01320729F0D90021284666
:1015E000FFF74CFC40B92846FFF7CAFD20B9013788
:1015F000642FA9D10720A7E0042840F0A5809DF81A
:101600001730E372EE619DF817309B070AD500246E
:1016100036F814300BB10134FAE719340D23B4FB5A
:10162000F3F400E0012400212846FFF727FC0028FE
:1016300040F08780064629692868FFF734FA0028B9
:101640007FD16B691B78E52B00D02BB90136B442F2
:1016500003D1013C08D156E0064601212846FFF798
:1016600017FD0028E7D06CE0E9882846091BFFF742
:1016700005FC002868D1A869DFF8D480FFF7E3F8FB
:101680000F27064629692868FFF70DFA0346002848
:101690005AD16A69D5F81C9010735FFA84FE90766F
:1016A000D0760EF1FF310D2041435673D7721846A4
:1016B0004FF6FF7A504513F808C018BF39F81100EB
:1016C00002F80C0003F10103944418BF01314FEA02
:1016D000202B002808BF50460D2B8CF801B0E9D113
:1016E0004FF6FF73984229D039F8113033B382F89E
:1016F00000E02B6801221A7100212846FFF7C8FC80
:1017000010BB013CBED129692868FFF7CCF904461B
:1017100090B9014620226869FFF78EF80B22A9696B
:101720006869FFF77FF8AB696A69DB7A03F0180331
:1017300013732B6801221A71204605E04EF0400E0B
:10174000D5E7042808BF072007B0BDE8F08F00BF29
:10175000DC7F010870B5018CC5884FF6FF73994294
:1017600008BF29460446FFF789FB0346E8B9E5268A
:1017700021692068FFF797F9034698B901462022AE
:101780006069FFF759F862691670226801211171CA
:10179000E288954209D919462046FFF779FC0346AD
:1017A0000028E5D0042B08BF0223184670BD0000B6
:1017B0002DE9F0474FF0FF08404E05464446042708
:1017C0002969002969D02868FFF76DF907460028C4
:1017D00065D168690378002B6BD0E52B54D02E2B94
:1017E00052D0C27A02F03F0222F0200108294BD0E9
:1017F0000F2A41D15A0605D503F0BF04EB88427B7E
:101800002B8402E0A3423FD1424690F80D809045E0
:1018100039D1C27E837E43EA02231BB2A3BB027886
:10182000EF6902F03F02013A0D214A434FF0010EE9
:101830004FF6FF7913F806C000EB0C0191F801A0F8
:1018400010F80C1041EA0A21BEF1000F06D0FE2A62
:101850001AD827F812108E46013201E0494513D1FB
:1018600001330D2BE6D103785B061BD5FE2A0BD87E
:10187000002327F8123015E0BCB9FEF7E4FF40451D
:1018800013D1002717E09046FF2400212846FFF7D8
:10189000FFFB0746002893D001E0002FF1D0002382
:1018A0002B6108E0013CE4B2EFE74FF6FF732B84B5
:1018B00001E00427F3E73846BDE8F087DC7F010844
:1018C000012970B504460D4624D94369994221D2B5
:1018D0006369AB4201D8002070BD29462046FFF75E
:1018E00068FA06460028F6D0012813D0411C13D010
:1018F000002229462046FFF700FB70B923695A1CD5
:1019000001D13546E4E701332361637943F00103F4
:101910006371F6E7022070BD012070BD1FB5019014
:1019200004A8009140F8041D1446FEF79BFF011E19
:1019300014DB0D4B53F8210008B10022027001980E
:1019400008B10022027043F8210050B1012C07D1E8
:101950000022694601A8FFF7EBF802E00B2000E047
:10196000002004B010BD00BF600A00202DE9F04344
:101970008FB0144601910646002800F08D800023A8
:10198000036002F01E0201A905A8FFF7D1F80028A4
:1019900040F0898002AB0B930199444B0C9305A84E
:1019A000FFF78AFC0A9D10B9002D08BF062014F02D
:1019B0001C0F04F01F0749D050B1042873D105A8AB
:1019C000FFF7AEFD00286ED147F008070A9D05E03D
:1019D000EB7A13F0110F65D163075FD43C0741D553
:1019E00001F0AAF90024C0F30743C1B2C0F30722F3
:1019F000DDF81480A973000E2B74A9752B76EC7298
:101A00002C776C77AC77EC77EA736874EA75687654
:101A100098F800002946FEF7B7FF0123AC76EC7674
:101A20002C756C7588F804300446C8B101464046F0
:101A3000D8F82C90FFF744FF002834D10598013CDA
:101A4000C4604946FFF72FF840B12CE058BBEB7A51
:101A5000D80625D4A10701D5DA0723D43B0701D541
:101A600047F02007DDF814800024D8F82C30F3610B
:101A70003562B771F47198F800002946FEF784FFCB
:101A80003061EB69F360B8F80630B460B461C6F851
:101A90000080B380204606E0092004E0082002E030
:101AA000042000E007200FB0BDE8F083640A0020A6
:101AB0002DE9F74F99460023C9F8003005468846BE
:101AC0001446FEF7E7FE002840F09780E8790028EA
:101AD00040F09380AB79D80740F18C80EB68A86820
:101AE000181A844228BF044605F1240B002C00F08C
:101AF0008380AA68C2F30803002B62D12868837828
:101B0000013B03EA522313F0FF0311D10AB92869FC
:101B100004E069690193FFF74CF9019B012801D8A2
:101B2000022002E0411C02D10120E87165E06861F9
:101B3000D5F800A0696901935046FFF72FF90028F6
:101B4000EED0019B660A00EB03071ED09AF8022034
:101B50009AF801009919914288BFD61A33463A463D
:101B60004146FEF719FE0028DED1AB795A060AD5A8
:101B7000A869C01B864206D94FF40072594608EB8B
:101B80004020FEF74FFE760229E0AA69974217D05F
:101B9000AB795B060BD5012359469AF80100FEF795
:101BA00009FE0028C0D1AB7923F04003AB7128684F
:101BB00001233A4659464078FEF7EEFD0028B3D19E
:101BC000AF61A968C1F30801C1F50076A64228BF3C
:101BD00026462944324624314046FEF723FEAB68B0
:101BE0003344AB60D9F800303344B044C9F8003016
:101BF000A41B7BE7072000E0204603B0BDE8F08F80
:101C000070B50446FEF746FE00284BD1A37903F0D9
:101C1000200202F0FF00002A44D05B060DD52068A8
:101C2000A2694078012304F12401FEF7C3FD0028D6
:101C300036D1A37923F04003A371E1692068FEF750
:101C400032FF064670BB256AEB7A43F02003EB7245
:101C5000E3682B77E3681B126B77E389AB77E37B51
:101C6000EB772369AB761A121B0C2B751B12EA76E5
:101C70006B7501F061F80312A875EB75030C000E8B
:101C80002B766876AE74EE74A37923F02003A371EB
:101C9000236801221A712068BDE87040FEF7ABBED0
:101CA000012070BD70BD2DE9F74F9B460023CBF896
:101CB0000030044689469046FEF7ECFD002840F0CF
:101CC000BB80E579002D40F0B680A379990740F1FB
:101CD000B080A36813EB080F80F09C8004F124030C
:101CE0000193B8F1000F00F09580A268C2F30803D9
:101CF000002B71D120688378013B03EA522313F053
:101D0000FF03009316D112B9216931B900E061696E
:101D1000FFF76DF9014600287CD0012901D102208E
:101D200002E04A1C02D10120E07185E02369616173
:101D300003B92161A3795B060CD52068A2690199DA
:101D400040780123FEF736FD0028ECD1A37923F07B
:101D50004003A371D4F800A061695046FFF71EF854
:101D60000028DCD0009B5FEA582600EB030722D056
:101D7000009A9AF802309AF8010032449A4284BFDD
:101D8000009A9E1A33463A464946FEF713FD00284C
:101D9000C9D1A169C91B8E420AD94FF4007209EB5F
:101DA00041210198FEF73EFDA37923F04003A37182
:101DB0007602012522E0A3699F420CD0A268E36865
:101DC0009A4208D201233A4601999AF80100FEF797
:101DD000E3FC0028A7D1A761A068C0F30800C0F504
:101DE0000076464528BF46462044324649462430C0
:101DF000FEF718FDA37943F04003A371A3683344B1
:101E0000A360DBF800303344B144CBF80030C6EBBC
:101E1000080866E7A368E268934288BFE360A37995
:101E200043F02003A37135B12046FFF7E9FE0020FF
:101E300002E0072000E0284603B0BDE8F08F10B5AF
:101E40000446FFF7DDFE20B92046FEF723FD00B96A
:101E5000206010BD70B504460D46FEF71BFD00283E
:101E600040F08E80E079002840F08A80E368AB4241
:101E700004D2A27912F0020F08BF1D460022A36807
:101E8000A260002D72D02068867876026BB1013B8B
:101E90006A1EB3FBF6F1B2FBF6F28A4205D3724238
:101EA0001340A360ED1A61690FE0216961B9FFF782
:101EB0009EF80128014601D1022002E0013002D142
:101EC0000120E07170BD21616161B1B900252AE096
:101ED000A37920689A0713D5FFF789F8014698B1CE
:101EE0004B1CEDD00129E7D923685B699942E3D205
:101EF000A36861613344A360AD1BB542E8D804E038
:101F0000FEF757FF0146EBE73546A3682B44A36075
:101F1000C5F30803002BD9D02068FEF73FFF002847
:101F2000CAD000EB5525A368C3F30803F3B1A26937
:101F300095421BD0A37913F0400F04F124060BD077
:101F40002068012331464078FEF734FC0028B7D1E1
:101F5000A37923F04003A371206801232A46314668
:101F60004078FEF719FC0028AAD1A561A368E268B1
:101F7000934281BFE360A37943F02003A371002063
:101F800070BD000010B586B00446019140B3002238
:101F900001A902A8FEF7CCFDF8B9029B236003ABB0
:101FA000A361154BE36101992046FFF785F9E8B974
:101FB000616939B1CB7ADB060ED5029B1878FEF742
:101FC000E3FCA060029BDB88A38000212046FEF793
:101FD00055FF0428034605D105200023236008E0AF
:101FE000092006E0002BF8D1184602E00428F3D0BF
:101FF000F3E706B010BD00BF640A002010B5044628
:10200000FEF748FC00B9206010BD00007FB5044613
:102010000E46FEF73FFC0546F8B926B901462046B4
:10202000FEF72CFF18E001ABA3610D4BE3612046E6
:10203000FFF7BEFB042801D1256100E060B93146FD
:102040002046FEF739FC00212046FFF721F804283E
:1020500002D10023236100E00546284604B070BD8C
:10206000640A002030B599B018A9012241F85C0D2E
:1020700006A8FEF75DFD00283BD103AB0C93019948
:102080001D4B0D9306A8FFF717F9002831D10B99C6
:10209000E1B1CD7AEA071BD4069B1878FEF774FCF1
:1020A0000446B8B1EB0615D506A90FA82422FEF701
:1020B000B9FB02210FA81194FEF7E0FEC8B90FA8E2
:1020C000FFF776FB20B1042804D012E0062010E0D0
:1020D00007200EE006A8FFF73DFB50B91CB9069893
:1020E000FEF789FC05E021460698FFF7E9FB00288A
:1020F000F5D019B030BD00BF640A00202DE9F04FC3
:1021000093B012AC44F8340D00F016FE214606469A
:10211000012209A8FEF70CFD04460546002840F000
:10212000C68006AB0F930599634B109309A8FFF780
:10213000C3F8044680B1042840F0B98029460998C4
:10214000FEF755FF054648B1012809D1022429466A
:102150000998FFF7B5FBAAE00824A8E00724F6E7F2
:10216000431C7FD00998FEF740FC04460028EED1BE
:10217000099F29463846FEF711FE07F1300821462F
:1021800004904FF400724046FEF756FB0B222021CC
:102190004046FEF751FBC6F3074300939DF800301D
:1021A00087F84830330E01939DF8043087F84930A2
:1021B000EBB202939DF8083087F84A301022C5F33D
:1021C00007235FFA86FAC6F3072B039325FA02F674
:1021D0009DF80C3087F83B202E245FFA86F9360AEA
:1021E00087F84B302022414607F1500087F83040F5
:1021F00087F846A087F847B087F8449087F845608D
:10220000FEF710FB099987F8514008780B9A049B58
:10221000032803D1486A824208BF002287F86A2057
:102220001012120C87F86420121287F86B0087F8DE
:1022300065208F78C7B109985A1CC3624FF001031B
:1022400003710492FEF7AEFB044600287FF47FAFD3
:1022500001464FF400724046013FFEF7EDFAFFB22F
:10226000049BE7E7012472E709A8FFF759F9044640
:1022700000287FF46CAF0E9B099883F816A01022FB
:10228000DA729DF800201A769DF804205A769DF89F
:1022900008209A769DF80C2083F817B0DA7683F838
:1022A00014905E7501230371FEF7A5FB04462046DA
:1022B00013B0BDE8F08F00BF640A002030B59FB0B6
:1022C0000122019000910CA801A9FEF731FC002821
:1022D00072D10C9B159303AB12930199374B139357
:1022E0000CA8FEF7E9FF002866D11199002954D007
:1022F00015220B3106A8FEF795FA24220CA915A881
:10230000FEF790FA6846FEF7ADFA002847DB009921
:1023100015A8FEF7D1FF002843D004284CD115A8FA
:10232000FFF7FEF8002847D11A9D13220DF11A017C
:1023300005F10D00FEF776FA9DF818300C9C43F07D
:102340002003EB7201232371EB7ADB062BD5179B5D
:102350000E9A9A4227D029462078FEF715FB0146AF
:102360002046FEF71BFD014628B32046FEF79BFBE7
:1023700010BB0C9A92F851302E2B14D1179B82F877
:102380006A3019121B0C82F864301B1282F8653017
:10239000012382F86B10137105E004200CE00B2080
:1023A0000AE0082008E00CA8FFF7D4F920B90C983F
:1023B000FEF721FB00E002201FB030BD640A0020C0
:1023C0002DE9F04F89B001290590894616461ED89F
:1023D00005A8FEF747FA00281BDB864B53F8204080
:1023E000CCB10023C7B223703846FEF7C9F9C20743
:1023F00013D4430713D407AA01213846FEF7E8F99E
:1024000008B101209FE2079B7F2BFAD909E0132036
:1024100099E20B2097E20C2095E2032093E20A2038
:1024200091E2B9F1000F14BF00223F229B1A0192E2
:10243000721E3242079302D1002E40F06B826E482A
:1024400000224FF4FA61B3FBF1F130F81250A942C7
:1024500001D20132F9E7694931F81260B6F5007F1F
:1024600001D3760A00E01EB1812E28BF802600E04D
:10247000012640F6F572B3FBF6F5954240F24F8225
:102480004FF6F572954240F25982AD0005F20725EC
:1024900000226D0A4FF0030803924FF0200A019AC0
:1024A00052440292039A05EB020B029A9344019A5A
:1024B000B21A5A44934201D20E2044E206AA0321E2
:1024C0003846FEF785F9002840F02182069B013B43
:1024D000B3F5004F80F01B82069A0399531EB8F1A2
:1024E000030FC2F100025B4403EA020308BF029A31
:1024F000CBEB030304BFD2189A44069308BF1346DC
:10250000079A0CBF0293ED18CAEB02035B1BB8F1EC
:10251000020FA3EB0103B3FBF6F3049305D1049977
:1025200040F6F5739942C7D912E0B8F1030F06D10E
:10253000049A4FF6F5739A42BED90C230DE0B8F118
:10254000010F05D1B2F5803F2CBF0623012304E023
:10255000B2F5803F2CBF06230423B9F1000F4FD101
:1025600004F1300B4FF4007249465846FEF764F907
:1025700084F8F231FE23079A84F8F331019B84F842
:10258000FA21991843F6C163B1FBF3F18B0843F0CC
:102590003F0384F8F4313F2384F8F631131284F8B2
:1025A000FB31130C84F8FC3155230120120E84F802
:1025B0002E32AA2384F8EF0184F8F001069184F802
:1025C000F51184F8FD2184F82F3284F8F191034647
:1025D00084F8F79184F8F89184F8F9914A465946BD
:1025E0003846FEF7E7F800287FF40BAF4FF0F80B02
:1025F00008E000BF600A0020C48001082E800108A6
:102600004FF0F00B04F130094FF4007200214846FE
:10261000FEF712F90B22CD494846FEF703F90023D5
:10262000B8F1030F84F83B3084F8413018BF02231F
:10263000022284F84230079B84F83C200122B3F543
:10264000803F84F840204FEA232221BF84F8503095
:1026500084F851201A0C1B0E34BF84F8433084F8E0
:1026600053304FF03F0384F83EA084F848304FEADF
:102670002A2A4FF0FF0384F83FA084F84A304FF035
:10268000000A9DF8043034BF84F8442084F85220B6
:1026900084F84C3084F83D6084F845B084F849A053
:1026A00084F84BA084F84DA084F84EA084F84FA085
:1026B00000F042FBB8F1030F06904FEA20224FEAE8
:1026C000104331D184F875302B1284F855302B0C1F
:1026D00084F856302B0E84F85730022384F85C308F
:1026E000012384F86030062384F86230802384F864
:1026F000730084F87030000E292384F8742084F865
:10270000760084F8545084F85DA084F85EA084F8C4
:102710005FA084F861A084F863A084F8723013226B
:102720008B4904F1770017E084F859302B1284F8B4
:102730004730802384F8570084F85430000E292352
:10274000844984F8582084F85A0084F8465084F864
:102750005630132204F15B00FEF764F8552384F829
:102760002E32AA2384F82F32019A01234946384693
:10277000FEF720F800287FF444AEB8F1030F06D12D
:10278000019A0123063249463846FEF713F84FF402
:10279000007200214846FEF74FF8B8F1030F14D03D
:1027A0006D4BB8F1010F18BF6FF0FF0343EA0B0345
:1027B000FF224FEA136B069384F8303084F83120FF
:1027C00084F8322084F833B01CE06BF0FF030693EA
:1027D00084F83030FF2384F8313084F8323084F8C4
:1027E000333084F8343084F8353084F8363084F867
:1027F000373084F8383084F8393084F83A300F2391
:1028000084F83B30029B029A494603F1010A38469C
:102810000123FDF7CFFF014600287FF4F2AD4FF40E
:1028200000724846FEF708F801230693069B9D4276
:102830000FD901235246494638460AF1010BFDF7EC
:10284000B9FF00287FF4DDAD069B01330693DA461D
:10285000ECE7039BB8F1030F18BF1E4652465644DF
:10286000012349463846551CFDF7A4FF00287FF494
:10287000C8ADB5422A46F3D1B8F1030F3ED1522379
:1028800084F8303084F83130612384F8323084F8B1
:102890001732049B84F81D02013B412284F8332047
:1028A00084F81622C3F3072284F8183284F8192218
:1028B0001A0C1B0E84F81B32022384F81C32552399
:1028C00084F81A2284F82E32019A84F81E02AA2370
:1028D000722184F82F3201231A4484F8141284F8E8
:1028E000151284F81F0249463846FDF763FF019A26
:1028F0000123073249463846FDF75CFF00221146A6
:102900003846FDF765FF003018BF01201BE00123AA
:102910000693E1E5B6F5007FBFF4A3ADA4E505EBB2
:10292000450501356D0803354FF0010805F2FF1527
:1029300020226D0A03924FF0010AB0E502356D00C6
:102940004FF00208F2E709B0BDE8F08FF97F010807
:10295000058001081980010800FFFF0003681B6A59
:10296000184703681B6B18470368DB6A184703683E
:102970009B6A184700234381704740897047418113
:1029800070477047F8B503685B6904469847074687
:1029900040F2011003F0C0FD236806469B69204603
:1029A00098470025236831469B68204698470028B1
:1029B00001DD0135F6E7236839461B692046984753
:1029C000304603F0C5FD2846F8BD10B5044603F0B7
:1029D000BFFD204610BD38B504460430FFF70EFB9E
:1029E00005461CB1236820465B689847284638BDD9
:1029F00030B589B000F1280405464FF4807369466C
:102A0000043006940793FFF701FB60B99DF80900B5
:102A100060B195F8283043B90D220DF10901204627
:102A200008F006FC01E0002000E0204609B030BDBF
:102A3000036810B55B6A0C46984730B1014640F216
:102A40000112204608F0F4FB012010BD70B50446C9
:102A5000064B44F8043B0D4606460FCD0FC40FCD80
:102A60000FC42B682360304670BD00BFE4800108AE
:102A700000207047036801221B6900211847036882
:102A800000221B69114618474FF0FF307047112094
:102A9000704770470368DB6A184703685B6B184729
:102AA0000020704700697047704738B5044604300D
:102AB000FFF7C5F905461CB1236820465B689847B7
:102AC000284638BD10B5044603F042FD204610BD2F
:102AD00008B50430FFF794F8003018BF01204042D9
:102AE00008BD022A10B5044601D1036902E0012A9B
:102AF00001D1C3681944201DFFF7ACF908B9E0689B
:102B000010BD4FF0FF3010BD07B5043001ABFEF72C
:102B1000CFFF08B9019801E04FF0FF3003B05DF836
:102B200004FB07B5043001ABFFF7BDF808B9019805
:102B300001E04FF0FF3003B05DF804FB84B038B51E
:102B400005AC84E80E00074B0546214640F8043BDF
:102B50004FF4097208F06CFB2846BDE8384004B019
:102B6000704700BF20810108002070470020704797
:102B70000020704738B50C4611460268156A1A469F
:102B8000A84710B12060002038BD4FF0FF3038BD9D
:102B9000036810B59B6A0C461146984710B1206037
:102BA000002010BD4FF0FF3010BD00F5117108B5C9
:102BB00001221430FEF7B2FE003018BF012040425F
:102BC00008BD036810B55B6C04469847024640B9DF
:102BD00004F51171FEF7A2FE003018BF012040423B
:102BE00010BD4FF0FF3010BD10B58AB001A8FFF73F
:102BF000C9F948B94FF4967003F08EFC01A9044658
:102C0000FFF724FF204600E000200AB010BD08B501
:102C10000846FFF773FA003018BF0120404208BD94
:102C200008B54FF40072002100F51170FFF7C8FBE2
:102C3000003018BF0120404208BD08B508461146C3
:102C4000FFF73CFB003018BF0120404208BD08B52B
:102C50000846FFF707FA003018BF0120404208BDC0
:102C600070B50546ADF5D46D0E460430144607F038
:102C70008BF805F5117233461F4986A808F0CEFD82
:102C8000A50705D414F0010F14BF0222012200E0B1
:102C90000322A00505D561054CBF42F0080242F0B1
:102CA000100286A996A8FEF761FE00BB230703D594
:102CB000999996A8FFF7CEF80DF27C454FF409726A
:102CC00096A9284608F0B4FA4FF40A7003F024FCE1
:102CD0004FF4067204460DF59161684608F0A8FAB3
:102CE00095E80E002046FFF729FF204600E000206F
:102CF0000DF5D46D70BD00BF0082010810B5054B05
:102D000003602833044640F8043F07F05FF820468C
:102D100010BD00BF6C810108A0F10400EEE700BF08
:102D200010B50446FFF7EAFF204603F011FC2046E9
:102D300010BDA0F10400F3E707B501A807F0AEF855
:102D400001A808F06BF88168C2680368C90241EA0B
:102D50000241426841EA4211022293FBF2F341EA46
:102D6000030243690069503B42EA4363013043EA8E
:102D7000405003B05DF804FBF8B50546134B45F829
:102D8000043B0446012228460F4607F001F8104B89
:102D90002360543363600F4B1E6826B139460E48DA
:102DA00006F0DCFF0FE01C60302384F8443284F826
:102DB0004562284606F0E8FF324604F5117104F139
:102DC0001400FEF7ABFD2046F8BD00BF20930108BC
:102DD000A4810108640C0020078201080A4B10B589
:102DE000036054334360094B1A689042044606D18D
:102DF000002200F5117110461A60FEF78FFD204683
:102E0000FFF77CFF204610BDA4810108640C002060
:102E100030B5074D04460023221A914205DD14F80F
:102E2000012B82EA4303EB5CF6E7184630BD00BF96
:102E30003C84010830B5094D04460023221A914212
:102E400009DD14F8012B82EA132235F8122082EAF8
:102E500003239BB2F2E7184630BD00BF3C82010855
:102E6000034610B107C983E80700704770474268FE
:102E70000368806812F0010F4FEA620218BF8158A0
:102E8000104418BFCB58184710B50446044B40F8FF
:102E9000C43BD4F8D0300BB19B689847204610BD96
:102EA000E090010810B50446FFF7EEFF204603F05E
:102EB0004FFB204610BD38B5D0F8BC330133044673
:102EC00024D0D0F8C83313F0020500F55B700FD0A2
:102ED00006F07BFAD4F8BC33984217D1D4F8C83343
:102EE00023F00203C4F8C833042384F8C43338BD84
:102EF00006F06BFAD4F8BC3398421FBFD4F8C8333D
:102F000084F8C45343F00303C4F8C83338BD10B584
:102F10000446FFF7D0FFD4F8C80310BD08B5FFF78B
:102F2000CAFF08BDF8B500F51275044628460F46DD
:102F300006F0C0F904F51A76FF21304606F0A4FD2C
:102F4000C4B224B9284606F0FFF9B842F4DB28469B
:102F500006F0D7F9284606F000FA201C18BF012019
:102F6000F8BDD0F85833D0F850231A60FF2100F58F
:102F70001A7006F089BD38B5D0F85C33D0F850230C
:102F80001A600446FF2100F51A7006F07DFD4FF42B
:102F9000FA712046FFF7C6FF054610B92046FFF735
:102FA000E0FF284638BD10B50446FFF7E4FF20B126
:102FB0002046FFF7D6FF002010BD012010BD2DE9EF
:102FC000F04F87B01C46130E0093C2F307430193E2
:102FD000A1F1560AC2F307230293A1F1690B5FFA2C
:102FE0008AF307460D4690464FF0030903935FFAB4
:102FF0008BFB039B012B16D9BBF1010F13D99DF855
:1030000000308DF811309DF804308DF812309DF8A5
:1030100008308DF8133097F8C5338DF810508DF8BF
:10302000148093B115E000231A4677213846FFF744
:10303000C6FF012877D83846FFF793FF3846FFF7D9
:103040009AFF0028DBD1FF206DE005F0F703402B4D
:1030500009D1052104A8FFF7DBFE400040F0010084
:103060008DF8150002E001238DF815304FF0000AAD
:1030700007F51A7604AB304613F80A100AF1010A74
:1030800006F002FDBAF1060FF4D14C2D03D1FF2159
:10309000304606F0F9FC4FF0090AFF21304606F0F1
:1030A000F3FC030605D45FFA80FABAF1FF0F04D1EE
:1030B00038E0BAF1010AF0D1F5E71AF0080F2DD186
:1030C000BAF1010F2ED84D2D05D15CB3FF2130464A
:1030D00006F0DAFC20E0482D01D07A2D22D10CB385
:1030E000FF21304606F0D0FC00062060FF2130466C
:1030F00006F0CAFC226842EA00402060FF21304608
:1031000006F0C2FC226842EA00202060FF2130461F
:1031100006F0BAFC22681043206003E0B9F101090F
:103120007FF467AF504607B0BDE8F08FF8B50546AD
:103130000C4616461F46FFF71EFF58B121463B4678
:1031400032462846FFF73BFF04462846FFF709FFB3
:103150002046F8BDFF20F8BD2DE9F84300F51274B4
:10316000074620460E46904606F0A4F807F51A7565
:10317000FF21284606F088FC5FFA80F9B9F1FF0FBD
:1031800005D1204606F0E0F8B0F5FA7FF0DB2046E6
:1031900006F0B7F8204606F0E0F8B9F1FE0F43D18B
:1031A00097F8C633DBB100221021284606F02EFC2A
:1031B000002444454FF6FF71284607DA06F064FC08
:1031C00003123355331902345870F2E706F05CFCF1
:1031D000002284B20821284606F018FC15E0344687
:1031E000A31B98454FF0FF01284604DD06F04CFC78
:1031F00004F8010BF4E706F047FCFF2104462846DB
:1032000006F042FC40EA042084B297F8C53343B18B
:1032100041463046FFF70EFE231A58425841BDE89A
:10322000F8830120BDE8F8830020BDE8F8837FB56E
:10323000D0F8C833DB0704464DD403252046FFF7FA
:103240009AFE002844D000231A4649212046FFF761
:10325000B6FEE8BB102269462046FFF77DFF064612
:103260002046FFF77EFE8EB39DF800309DF80700E4
:103270009B11012B0AD1BDF80810000449BA00F4D3
:103280007C1089B208430130800225E09DF80820B7
:103290009DF8063092099B0242EA800203F44063E3
:1032A0009DF8090013435A1C40009DF80A3000F0B5
:1032B000060040EAD310023002FA00F39DF8050040
:1032C00000F00F0003FA00F0400A05E0013DB5D11F
:1032D0002046FFF746FE002004B070BD90F8C533CD
:1032E0002DE9F04106460D46904633B14FF400718A
:1032F0002846FFF79FFD074601E04FF6FF774FF4A2
:10330000FA713046FFF70EFEE0B306F51A74414637
:10331000204606F0B9FB96F8C633DBB10022102137
:10332000204606F073FB0026AB19A95D5B782046AA
:1033300043EA0121023606F0A7FBB6F5007FF3D180
:103340003946204606F0A0FB00220821204606F060
:103350005DFB11E06E1E05F2FF1516F8011F2046F9
:1033600006F092FBAE42F8D13912204606F08CFBF3
:103370003946204606F088FBFF21204606F084FBF4
:1033800000F01F00BDE8F0812DE9F84304468946AE
:1033900017461D4600262046FFF7EDFD804650B338
:1033A00094F8C433032B14BF7A023A460023522107
:1033B0002046FFF704FEF0B94FF40072494620465C
:1033C000FFF7CAFE08B9013608E0013D07F1010721
:1033D00009F500794FF00006EED12E4600231A467B
:1033E0004C212046FFF7EBFD28B92046FFF7B9FD39
:1033F00035B1022ECFDD2046FFF7B3FD4FF00008B8
:103400004046BDE8F8832DE9F047D0F8C84314F0F2
:10341000010405468946174630D1012B05D9FFF72F
:10342000B3FF80F00100C4B229E04FEA422803262E
:103430002846FFF7A0FD20B92846FFF792FD01249A
:103440001DE095F8C4230023032A0CBF3A464246E8
:1034500051212846FFF7B3FD0028EDD14FF400724B
:1034600049462846FFF778FE82462846FFF779FD51
:10347000BAF1000F03D1013EDAD1DDE70324204683
:10348000BDE8F0872DE9F74F04468B4617464FEA13
:10349000422A03262046FFF76EFD054650B394F8F6
:1034A000C4230023032A0CBF3A4652465821204623
:1034B000FFF785FD8046E8B9FE2259462046FFF712
:1034C0000DFF81462046FFF74CFDB9F10A0F0FD0E2
:1034D000B9F10C0F0ED094F8C7638EB101AB424620
:1034E0004D212046FFF722FE20B9019B13B906E0CB
:1034F000013ECFD12046FFF734FD002500E03546E0
:10350000284603B0BDE8F08F2DE9F74F0546894600
:1035100092469B461C4616468846002795F8C433BB
:10352000012B04D12846FFF726FD48B975E000239A
:10353000224657212846FFF7F9FD0028F2D06CE01B
:1035400095F8C433032B14BF72023246002359216D
:103550002846FFF734FD00285FD1FC22414628466B
:10356000FFF7BCFE0528064601D0013706E0013C06
:1035700008F500784FF00007EFD127464FF4FA71B5
:103580002846FFF7CFFC8046002846D0ACB9FD2185
:1035900005F51A7006F078FA2846FFF7E2FC95F870
:1035A000C763002E45D001AB22464D212846FFF7C8
:1035B000BDFD90BB019B83BB35E000231A464C2127
:1035C0002846FFF7FCFC044638BB2846FFF7C9FC39
:1035D0000A2E22D195F8C433012B28D02846FFF7B4
:1035E000CAFC20B32346224656212846FFF7E7FCB3
:1035F00040B904220DEB02012846FFF7ADFDA0B152
:10360000019C24BA2846FFF7ACFC022F09EB4428A2
:1036100004EB0A06C4EB0B0480DD2846FFF7A1FC8F
:103620004FF0000805E0B04603E00446EAE7002456
:10363000EBE7404603B0BDE8F08F38B5D0F8C8439B
:1036400014F0010F0CD164070CD4012B02D9FFF741
:103650005BFF01E0FFF716FF80F00100C0B238BD4C
:10366000032038BD022038BD70B5044690B0032554
:103670002046FFF780FC20B92046FFF772FC0020AF
:103680001CE000230E4A46212046FFF798FC002844
:10369000F2D1402269462046FFF75EFD06462046ED
:1036A000FFF75FFC3EB19DF8100000F00F00431ED5
:1036B0005842584102E0013DDAD1DDE710B070BD5B
:1036C000F1FFFF80F0B58BB0044602A805F056FE6E
:1036D0002046FFF7F0FBD4F8C803860700F1FB8013
:1036E000C50740F1F88004F51A757C49284606F0B4
:1036F000AFF90327D4F85833D4F850231A600A26B8
:10370000FF21284606F0C0F9013EF9D13246334682
:1037100040212046FFF70AFD0128024602D0013F62
:10372000E8D1ACE094F8C5333BB133467B21204669
:10373000FFF7FCFC012840F0A28001AB4FF4D572EA
:1037400048212046FFF7F2FC012826D1019BC3F354
:103750000B03B3F5D57F40F0928001AB00227A21B4
:103760002046FFF7E3FC012840F08980019BD90245
:1037700040F1858002A805F09DFD0023584A69218B
:103780002046FFF7D3FC0128064612D102A805F017
:10379000DBFDB0F5FA6FF0DB0BE001AB00227A2124
:1037A0002046FFF7C3FC012869D1019BDB0266D5E7
:1037B0006BE002A805F0A5FD02A805F0CEFD002EE5
:1037C0005DD101AB32467A212046FFF7AFFC0028DD
:1037D00055D1019BD4F8C013424E5A004CBF03236D
:1037E0000223B14284F8C43328DD2046FFF73CFFB2
:1037F00018B1D4F8C0333C491DE031461EE002A8A0
:1038000005F0A2FDB0F5FA6F08DA0023344A692109
:103810002046FFF78BFC01280646F0D002A805F0F1
:1038200070FD02A805F099FD9EBB022384F8C43305
:103830002C49D4F8C0338B42D8BF1946284606F02D
:1038400007F994F8C433012B06D000231A466A21E5
:103850002046FFF76BFC90B994F8C433032B07D0D4
:1038600000234FF4007250212046FFF75FFC30B96F
:10387000D4F8C80320F00100C4F8C8032BE00423E7
:1038800084F8C433D4F8C80325E002A805F012FD7B
:10389000BBE702A805F00EFD00234FF48012412182
:1038A0002046FFF743FC0128064605D102A805F093
:1038B0004BFDB0F5FA6FEFDB02A805F022FD02A880
:1038C00005F04BFD002EDAD1012384F8C4330749FB
:1038D000D4F8C033AFE70BB0F0BD00BF801A0600CC
:1038E0000000104040787D0180F0FA02002D310187
:1038F000C36810B504460BB19B689847204610BDBD
:1039000070B586B08DE80C000E46054606F0EEFA5E
:10391000009B0293019B039302A9064B0593284643
:10392000049605F0FBFD02A8FFF7E2FF06F00AFB94
:1039300006B070BD3C85010870B586B08DE80C00FE
:103940000E46054606F0D2FA009B0293019B0393B4
:1039500002A9064B05932846049605F0B9FD02A876
:10396000FFF7C6FF06F0EEFA06B070BD3C85010811
:103970002DE9F04F8BB00D4615999DF85C800446FB
:1039800091461E46FFF7F8F9444A226054326260BD
:1039900004F51A7B04F512704FF0FF3A05F0EEFCC7
:1039A000334629464A4604F55475CDF800A05846DA
:1039B00006F09CF81C220021284607F037FD012262
:1039C0002846BDF9501004F55B7505F060FCBDF9A3
:1039D0005810284605F032FD0127189BC4F8C03363
:1039E00000263946484684F8C46384F8C57384F8D1
:1039F000C66384F8C773C4F8C87302F047FF032294
:103A00000821584606F002F8B8450BD10221284695
:103A100005F0CEFC224B0293039602ABC4F8BC83A4
:103A20000CCB2FE0B8F1020F0AD14146284605F031
:103A3000BFFC1B4B0493C4F8BC63059604AB0CE0BD
:103A4000B8F1030F0FD13946284605F0B1FC144BED
:103A50000693C4F8BC63079606AB0CCB21462846F8
:103A6000FFF76AFF15E0B8F1040F10D13946284678
:103A700005F09EFC0A4B089309960AAB13E90C006B
:103A8000C4F8BC7321462846FFF73AFF01E0C4F8AA
:103A9000BCA320460BB0BDE8F08F00BF50850108E5
:103AA0001D2F000810B50446FFF78BF8D4F8C83373
:103AB00043F00103C4F8C833042384F8C43300205E
:103AC00010BD00000A4B10B503F108025C33044638
:103AD0000260436000F55B7005F080FC04F51A702D
:103AE000FFF7D2F92046FFF779F9204610BD00BF55
:103AF00048850108A0F10400E4E700BF10B50446C2
:103B0000FFF7E0FF204602F023FD204610BDA0F1A4
:103B10000400F3E738B504460D4606F0E7F9204601
:103B2000294603F017F806F00DFA204638BD13B504
:103B300004460846019112F081FA0022002312F097
:103B40005FFD18B106F0D2F9002114E006F0CEF9BD
:103B5000DDED017AF8EEE77AB7EE007AC7EE276A74
:103B6000204616EE901A03F071F806F0EBF906F015
:103B7000BDF94FF07C51204602F0D2FE02B0BDE804
:103B8000104006F0DFB970B50546044645F8041B41
:103B9000164600211C22284607F048FC31462846DC
:103BA00005F085FB012302222068082105F037FE7D
:103BB0004FF4E131206805F01FFE236962681A6046
:103BC0004FF07C5006F030FAE36862681A602046D5
:103BD00070BD000030B52DED028B08EE102A85B0C7
:103BE00004460D46206805F031FE40B120684C3097
:103BF00006F0D6FA01462C4807F07CFCF2E7DFED30
:103C00002B7AB4EEE78AF1EE10FA09DCB5EE408AC1
:103C10009FED277AF1EE10FA48BFB0EE478A01E037
:103C2000B0EE678A9FED237A28EE078A65F07F055C
:103C300088EE277A32208DF80C500025DFED1E7AB1
:103C400077EE277AFCEEE77ACDED017ABDF8043005
:103C5000C3F3C61203F07F038DF80E30E3688DF8CE
:103C60000D2062681A6006F0D4F9206803AB4C306E
:103C7000595D013506F080FA032DF6D1206805F074
:103C8000E5FD40B120684C3006F08AFA014606484E
:103C900007F030FCF2E7322005B0BDEC028BBDE846
:103CA000304006F0B6B900BFAC850108000087437C
:103CB000000000000000FA4500C05A450E2907EE3A
:103CC000102A1CD8D0F868268B001A44D2ED007A4E
:103CD000F4EEC77AF1EE10FA0BD9D0F8642613444B
:103CE000D3ED007AB4EEE77AF1EE10FA58BFF0EEB9
:103CF000477A17EE902A00F58870FFF76BBF704780
:103D00002DE9F041044686B00D4601F041FEC4F8AD
:103D1000A0504FF4165304F1A80500930A22002383
:103D20000921284605F05EFC0122294604F5887029
:103D300004F59875FFF727FF04F5A4774FF0FF38D7
:103D400008212846FFF7E6FE04F50C76132314221B
:103D50001521CDF80080384605F0C8FE0722394607
:103D60003046FCF79BFB0422394604F51770FCF73C
:103D700089FA624B049300230393614B01930B2355
:103D80001422009315211323CDF8088004F5227026
:103D9000FFF7EEFD0F2002F0CBFB0122C4F8A400D8
:103DA00000EB08030E3003F8012F8342FBD13C20C7
:103DB00002F0BEFBC4F858063C2002F0B9FBC4F880
:103DC00064063C2002F0B4FBD4F858264D4BC4F8EE
:103DD00068061360D4F864364B4919604B4901609A
:103DE0004B4F4C4951605F6041604B499160996015
:103DF0004A4981604A49D160D9604A49C1604A490B
:103E000011614A4919614A4901614A4951614FF0BA
:103E10008541596148494161484F49499161DFF8FD
:103E200054E199618761474FD761C3F81CE0C761CE
:103E30004FF0844E444F1762C3F820E0076251628E
:103E40005962424941620027414991629F62816201
:103E5000404FD7624FF08341D962C7621163196343
:103E60003D4901633D49516359633D4941633D49C2
:103E700091633D4A9A633D4B83633C2002F058FBBB
:103E8000C4F85C063C2002F053FBD4F85836D4F852
:103E90005C26C4F8600603F13C0753F8041B40F8A5
:103EA000041BBB4242F8041BF7D14FF4DC612846E7
:103EB000FFF73DFE4FF07C5006F0B6F82846002193
:103EC000FFF735FE4FF07C5006F0AEF80025D4F831
:103ED000583603EB850329461A6820460135FFF75B
:103EE000EDFE0F2DF3D164213046FCF7B7FB2048DF
:103EF00007F000FB204606B0BDE8F08140420F000D
:103F0000BC8501080000E4420000C04200003B43C1
:103F1000000040420000D0420000D242000029438D
:103F20000000F44200005843000004430000B64281
:103F300000002E43000003430000124300005543DD
:103F40000000094300000F430000F642000039431F
:103F50000000344300000743000044430000504287
:103F6000000010430000D4420000344200006343CC
:103F7000BF850108000094422DE9F04F2DED028B22
:103F800097B005461C220021684607F04FFA13211E
:103F9000684605F08CF9039B009A1A602C4605F1DF
:103FA00098084FF01909204601F04FFD002859D01C
:103FB000A04557D090FBF9F60DF11C0A00273946B1
:103FC000204601F048FDD5F85C3607EE900A03EB79
:103FD000870393ED007AF8EEE77A013777EEC77A38
:103FE00007EE106AF8EEC76A0F2F87EEA67AAAECE2
:103FF000017AE4D14FF0000AB2451FDA07EE90AA29
:10400000B8EEE78A0DF11C0B0027D5F85C36BBEC47
:10401000017A03EB8703D3ED007AE7EE087A39469D
:104020002846013717EE902AFFF748FE0F2FECD1F4
:10403000192006F007F80AF1010ADDE70026D5F895
:104040005C363146204603EB860701F004FD07EE9F
:10405000900A0136F8EEE77A0F2EC7ED007AEED11E
:104060000834A0E7009A029B1A6017B0BDEC028BDF
:10407000BDE8F08F2DE9F0470023ADF51C5D8046CB
:1040800086B0184642F2107102AC00221C44A054C3
:104090000132C82AFBD1C8338B42F5D140F2FF115F
:1040A0002C4802F0A8F92C492C4806F017FB0746CB
:1040B00008B92B4846E02B4807F01CFA00254FF0C2
:1040C00001092E46AA460DF107022749384606F097
:1040D00021FB9DF807300A2B05D1B9F1000F05D15E
:1040E0008DF8079004E04FF0010901E04FF000095E
:1040F0009DF8074094B94FF0C809AC421EDA02ABF4
:1041000009FB043608EBC400314601F05AFC214695
:104110003246164807F0EEF90134EEE7C82302AA4A
:1041200003FB05230A2C15BF9C550135013603F806
:1041300006A012BF76B26DB20026C4E7384606F07C
:10414000B1F80B4807F0D6F90DF51C5D06B0BDE8D7
:10415000F08700BFD2850108DA850108DC850108F7
:10416000F1850108028601081086010813860108FE
:104170002286010838B50D460446104805F054FF64
:10418000002D19DBD4F8A0309D4215DC022D05D09E
:10419000032D05D0012D07D1094902E0094900E0AE
:1041A00009492046FFF766FF2046FFF7E5FE204657
:1041B000BDE8384001F0F9BB38BD00BF9A99993E7F
:1041C0003186010847860108DC85010870B505467F
:1041D000094B45F8283B06465DB100F14804AC4266
:1041E00007D0103CE368002BF9D09B682046984725
:1041F000F5E7304670BD00BFC890010810B5084B08
:10420000036003F120027C330446C26403654C3032
:1042100005F0A0FF2046FFF7D9FF204610BD00BFE4
:10422000C08F0108A0F14C00E8E7A0F15000E5E7DD
:1042300010B50446FFF7CAFF204602F089F9204670
:1042400010BD000008B5024807F054F9FEE700BFB2
:104250005B8601084FF07E5008B505F0E5FE074982
:104260000748FCF7A9F80648FCF7A8F80028FAD098
:1042700000210248FFF77EFFF5E700BFF815002098
:10428000680C002010B50446FFF7B8FF204602F086
:104290005FF9204610BDA0F14C00F3E7A0F15000FB
:1042A000F0E7000037B5104C104D4FF41653009353
:1042B0000F2200230221204605F094F92A460C49DA
:1042C000204602F0F1F821460A4C0B48FCF7B6F8FC
:1042D00001212046FFF714FD08492A46204603B075
:1042E000BDE8304002F0E0B8701C00200000002063
:1042F000FD410008F8150020680C0020014300086B
:1043000010B5044600F52270FFF7DCFB04F5A4703D
:10431000FEF7BAFD04F1A800FFF770FF204610BDBC
:10432000024B1B6803B11847704700BFD81C002020
:104330007047000008B5024C23689847FCE700BFAF
:1043400004000020836A9B0804BF244B1B88F0B53F
:10435000046B08BF9B0804EB8306750748BF043E47
:104360004FF0807206E90600A6F14005A6F144026E
:10437000A6F10C074FF0000E42F804EFBA42FBD151
:10438000C26946F8202CC278C562022A416323D054
:10439000134A2260114A1268D2001DD5112B1BD975
:1043A000A3F1100251086FF007024A43A2F138034B
:1043B000334429464FF0CC30994204D041F8040CE4
:1043C00041F8080DF8E70832AB181A1F94423CBFB9
:1043D0004FF0CC3243F8042CF0BD00BF70860108CA
:1043E000A52E5AE290F82520C36A0AB1603300E096
:1043F00020331960704710B590F82540C36A0CB19E
:10440000603300E0203383E8060010BD08B50B4898
:1044100000F0AAFA0A4B18600A4800F0A5FA0A4B05
:1044200018600A4800F0A0FA094B186006F0CEFCAC
:1044300000210846BDE8084002F06CB9FC8601087E
:104440002425002010870108141D0020788601080B
:10445000101D0020FFF76EBF10B5044600F00CFAE7
:1044600021460246BDE81040014805F077BC00BF78
:1044700094860108FFF754BF0449054AC1F100536F
:1044800003F53C43D3601161704700BFB82F002093
:104490000800002000F040FBFFF7EEFF034800217A
:1044A00000F0ECFA00F06EF9FEE7000008000020D2
:1044B000024B4FF0FF31186800F076BA141D00204F
:1044C000014B186800F098BA141D0020024B4FF001
:1044D000FF31186800F068BA101D0020014B186801
:1044E00000F08ABA101D002080F309887047EFF3AE
:1044F00009807047684680F309885A480078C007E9
:1045000014BF0220032080F314887047DFF858C1DD
:10451000EFF305831B0618BF6047EFF31483DB0737
:1045200008BF604700DF7047DFF840C1EFF3058345
:104530001B0618BF6047EFF31483DB0708BF604713
:1045400000DF7047EFF30980816911F8021CE1BBBD
:1045500090E80F1010B5E047BDE81040EFF3098C6C
:104560008CE80700424B93E80600914208BF704771
:1045700041B91EF0100F16D13E49086820F0010025
:10458000086010E01EF0100F06BF2CED108A01200D
:10459000002081F825002CE9F00FC1F82CC00CB4E4
:1045A00000F086FF0CBC1A60D2F82CC0BCE8F00FFB
:1045B00092F8250000280EBF6FF0020E6FF0120E69
:1045C000BCEC108A8CF30988704710B52A4A12682F
:1045D000914209D8294C54F8214090E80F10A04787
:1045E000EFF3098C8CE80F0010BD10B500F0EAFE67
:1045F000BDE810401E4B93E80600914208BF70478B
:10460000EFF3098C1EF0100F06BF2CED108A01206D
:10461000002081F825002CE9F00FC1F82CC00CB463
:1046200000F046FF0CBC1A60D2F82CC0BCE8F00FBA
:1046300092F8250000280EBF6FF0020E6FF0120EE8
:10464000BCEC108A8CF30988704710B500F012FF9B
:10465000FFF7CEBF10B500F00BFF00F00BFFFFF728
:10466000C7BF00007C860108735100088D51000807
:10467000642C002034EF00E000000000FCFFFFFF8E
:104680000B4A136830B5002433B19D68A94203D3A7
:104690001C46491B1B68F7E70360816013B19D68E6
:1046A000691A99600CB1206030BD106030BD00BF48
:1046B000202C0020C0B1431C11D00C4B984211D8C3
:1046C0000B4B1B684FF47A715A1E01FB0020B0FBA4
:1046D000F3F34FF6FE70834206D898B270474FF658
:1046E000FF7070474FF6FE70704700BF00093D0035
:1046F0006C86010838B1830704D10378002B18BFFA
:10470000002070470020704738B50E4D2878B0B9AA
:104710000D4C236893F8241000F040FF2368DA78EA
:10472000FF2A03D1DA6A203282F309886168064AD7
:1047300009B982E80A0001F0E5F801232B70002096
:1047400038BD00BF1D2C0020642C0020014B1878C0
:10475000704700BF1D2C002010B5EFF3108434B952
:10476000EFF305841CB9EFF31484E40702D4034B80
:10477000187810BDDFF808C000DF10BD1D2C002028
:104780004D47000810B588B0EFF31083002B32D1ED
:10479000EFF305837BBBFFF7DFFF28B9184C2468D4
:1047A00014B1646804B1A047EFF3148404F0030467
:1047B000022C0CD0032C16D0012C1ED008AC84F394
:1047C0000988104C2478E40705D5022404E00D4C38
:1047D0002478E4070BD4032484F31488BFF34F8FA9
:1047E000BFF36F8F03E0074C2478E40705D4DFF8AC
:1047F00018C000DF02E0822000E0FF2008B010BDFA
:10480000542C00207C8601080947000870B50B462F
:104810001646024608B9002070BD00680028FAD08C
:10482000B2F90440E51CADB2062DF4D8D5680DB13F
:10483000126900E02A46211D41EA052100F0ECFE44
:104840000028E8D0094B0A4A013853F82040E36AAF
:104850005A63084B1B6833B19B6823B13146E0783B
:104860009847E06300E0E663204670BD60240020C6
:10487000C9490008542C002008B500F087FE18B183
:104880000138024B53F8200008BD00BF602400200F
:1048900010B5FFF72FFF044670B1084B1B681BB122
:1048A000DB680BB1C06B9847E07800F00BFFFF2886
:1048B0000CBF8120002010BD802010BD542C002092
:1048C000830704D128B1436901691B6803E0002311
:1048D00000E00346194618467047000010B504462C
:1048E0000846DFF80CC000DF84E80300204610BD56
:1048F000C148000810B548B1046824B1237823B931
:10490000204600F058FC204610BD002010BD70B5B8
:1049100010F0030405460E4611D180B10378032B35
:104920000DD10846FFF7C6FE0146284600F0BCFC44
:10493000012806D1002E14BFC120812070BD802027
:1049400070BD204670BD820708B50AD148B1037812
:10495000032B06D100F038FCFF280CBF812000207B
:1049600008BD802008BD000070B50546EFF3108437
:1049700094B9EFF305868EB9EFF31484E40706D4F7
:10498000074C24781CB9BDE87040FFF7B3BF284638
:10499000DFF810C000DF70BD002070BD204670BD84
:1049A0001D2C0020F548000810B5EFF3108434B931
:1049B000EFF305841CB9DFF80CC000DF10BD8220C6
:1049C00010BD00000F490008084808B54FF0FF313E
:1049D0000068FFF7E9FFDFF818C000DF0446FFF7C3
:1049E00049FD2046DFF80CC000DFFEE7182C002050
:1049F000794800089148000810B5EFF3108434B9E5
:104A0000EFF305841CB9DFF80CC000DF10BD822075
:104A100010BD0000474900082DE9F04180460F46CF
:104A20001646EFF31084F4B9EFF30583E3B9EFF31F
:104A30001483DB0706D40E4B1B781BB9BDE8F0418D
:104A4000FFF7E4BE0B4D4FF0FF312868FFF7ACFFD6
:104A5000404639463246DFF820C000DF0446286869
:104A6000FFF7CAFF00E000242046BDE8F08100BF48
:104A70001D2C0020182C00200D4800080022FFF7F4
:104A8000CBBF10B5044660B1016859B1406860B150
:104A900003784BB90431890089B200F039FA6068B3
:104AA00010BD10BD084610BD002010BD38B5114C1A
:104AB00023780BB900F0ACFE0F4B25781B68FF2262
:104AC0009A708DB929460D48FFF7DBFF0C4B2A463B
:104AD000186029460B48FFF799FE0B4B18600B48EE
:104AE000FFF742FF0A4B186001232370094B002097
:104AF000187038BD1C2C0020642C00200087010891
:104B00002025002080860108142C0020148701082D
:104B1000182C00201D2C002010B5EFF3108474B960
:104B2000EFF305845CB9EFF31484E40703D4BDE824
:104B30001040FFF7BBBFDFF80CC000DF10BD8220C4
:104B400010BD0000AD4A00082DE9F04F0C4685B0BD
:104B50008046E8B10378012B1FD10846FFF7AAFD74
:104B600002A90246404600F0E1F9012806D10020E2
:104B7000002C0246034618BF402003E000200246F6
:104B800003461020029904460D4616461F4608E0CB
:104B9000802405460646074603E0002580242E466D
:104BA0002F462046294632463B4605B0BDE8F08FE9
:104BB00070B50E461446054660B15AB90378012B0C
:104BC00008D100F009FA38B12846314600F008FA59
:104BD000204670BD802070BD812070BDF8B5114B9E
:104BE0001C681E46E4B1A3680F4F013BA360A26896
:104BF000B2B92568386835602146FFF7D9FF10B192
:104C00000420FFF729FC6379012B04D1E1682046D9
:104C1000FFF736FD01E0012323710DB12C46E6E7D5
:104C2000F8BD00BF202C0020202500207FB50446C1
:104C30001646084601B112B18023236010E00B78BC
:104C4000012BF9D102A900F0D2F9042808BF1023E2
:104C500001AD14BF0196019395E8070084E80700B1
:104C6000204604B070BD000038B504461546EFF389
:104C7000108010B9EFF3058020B12A462046FFF7D7
:104C8000D5FF06E008461146DFF80CC000DF84E8D7
:104C90000700204638BD0000494B00087FB50A4C8C
:104CA00021684FF0FF3203A8FFF7DEFF039B102BB4
:104CB000F6D1049901A8FFF711FE019B002BEFD05C
:104CC00002989847EBE700BF2025002010B5038B22
:104CD00042781943062A04460183438B03D133EA01
:104CE000010219D105E0052A16D111EA030213D0F9
:104CF000428321EA03012183204600F0CFF80123FB
:104D000020466370628B0821FFF775FB214603483C
:104D1000BDE8104000F004B810BD00BF242C0020F6
:104D200030B502788C784368013AD2B22BB19D78C5
:104D3000A54202D318465B68F8E7022A4B6041603F
:104D400003D803B19960886030BD00238B6030BD0B
:104D500002784368013A59684160022A4FF0000224
:104D600004D809B188605A609A6000E05A60184619
:104D700070470000034B5A6842600022826058600E
:104D8000704700BF242C0020114BDA6810B50AB11F
:104D90009A8A0CE000248A1AC460D86003619A825F
:104DA000848210BD002CF5D0A38A1A4423468A427F
:104DB000DC68F7D3C460D860C468036104B12061C3
:104DC000521A92B28282998A8A1A9A8210BD00BFC0
:104DD0003C2C0020F8B5174DEB68002B29D0AB8A8E
:104DE000154F013BAB822E46AA8A12BBF46804B36E
:104DF000A3683BB161685960616809B18B6062600A
:104E00000023A36021460D48FFF78AFFA38AAB82E7
:104E10006378042B01BFE38A3A689B18A3820123BD
:104E20006370E368EB6000220BB11E61E2602261F7
:104E3000DAE7F8BD3C2C0020AC2C0020242C00200C
:104E400083682BB142685A6042685AB193607047D8
:104E5000054B5A68904202D142685A607047134627
:104E6000002AF6D1704700BF242C002010B58468BA
:104E7000014624B94378012B0DD1074C03E0237878
:104E80000BB9A468FBE70846FFF7DAFF2046BDE848
:104E90001040FFF745BF10BD242C0020036910B55A
:104EA00073B1C268DA60C2683AB19C8A818A2144CF
:104EB000998213610023C36000E09A82002303619A
:104EC00010BD000070B4114BDD78EFF31086EFF3E6
:104ED000108272B69A78954211D901329A701A7876
:104EE000541CA54208BF00241C7006B962B6954246
:104EF00007D903EBC20370BC586099607047002E5D
:104F0000F4D0022070BCFFF7A7BA00BF9C24002099
:104F100001231039037089080023437083704360B4
:104F2000038143818381C1817047000070B5858909
:104F300004461646002D36D043891A1D013350F819
:104F400022200A60C2899BB29A42438104BF002397
:104F500043814368EBB14378022B1AD1FFF7F8FE87
:104F600000210546FFF73EFA2389E9691A1D01333E
:104F700044F82210E2899BB29A42238108BF0023A1
:104F8000284608BF2381FFF789FF284600F0C0FAB2
:104F90001CE0EFF31080EFF3108372B6013DA581A2
:104FA000A0B962B670BD9AB142680A4B1AB11968CD
:104FB000FFF7B6FE05E01B6843605A609860012366
:104FC00043700821304600F0C7FA01E0002070BDB0
:104FD000012070BD642C0020C2898089101A70479E
:104FE00008B5FFF76FFFBDE8084000F0D9B9838925
:104FF00010B5044603B34389043350F823300B60E3
:105000004378022B04D10021FFF75CFF00F0C8F9C0
:10501000EFF31083EFF3108272B6A289013AA281F6
:1050200003B962B66389E28901339BB29A42638114
:1050300004D10023638101E0184610BD042010BD97
:10504000436870B504460E46002B4CD04578022DBF
:105050001CD0032D0AD0012D62D1FFF779FE044642
:1050600032461021FFF7C7F9657037E0084600F0B7
:1050700080F80546002853D02046FFF769FE2946F0
:105080000446FFF7AFF90123637027E0FFF760FEE6
:1050900000210546FFF7A6F92389E9691A1D44F89E
:1050A0002210EFF31082EFF3108172B6A189013163
:1050B000A18102B962B6E28901339BB29A4223818F
:1050C00004BF0023238101236B702846FFF7E6FE0F
:1050D00029461448BDE87040FFF722BE2046FFF77E
:1050E000DDFE2146F5E78089E189884213D22389D4
:1050F0001A1D44F82260EFF31082EFF3108572B6A8
:105100000130A08102B962B601339BB2994208BF57
:105110000023238170BD0320BDE87040FFF79CB9D8
:1051200070BD00BF242C0020002ABBBF22F000422B
:105130000732033222F00702A8BF22F0030210B5A3
:10514000B4BF10230C2392B1D4188C420FD8014461
:1051500003445442416003608260214498188142B4
:1051600002D300510346F9E70020186010BD01206A
:1051700010BDEFF3108372B6026803F001030AB1A9
:105180001168016003B962B6104670478142034658
:105190000DD3426891420AD2EFF3108072B61A68BA
:1051A0000A6010F00100196003D162B67047012057
:1051B000704700207047032303700023438043603F
:1051C0008360C360704700002DE9F84343880546BB
:1051D000002B61D0324F81683A6891425CD1013B2B
:1051E0009BB2438013B10020BDE8F8830B6A98425C
:1051F00003D1C3680B6206E0134623B1DA68954217
:10520000FAD1EA68DA6091F824300C6A3CB162683D
:105210001AB19278934238BF1346E468F6E78B7070
:105220006A68DFF8808042B32846FFF791FD214687
:105230000646FFF7D7F83046FFF730FE336AEB60DB
:105240004FF001093968D8F80430A5F80290AE6033
:1052500035628A789B789A4201D3304619E04046FD
:10526000FFF75EFD31464046FFF75AFD0C4B1B68C9
:1052700083F8019086F801900AE0D8F8042092782B
:105280009A42B0D94046FFF74BFD3B6801225A7065
:10529000204600F03DF9A6E7FF20BDE8F88300BFF7
:1052A000642C0020242C0020438870B504460E4650
:1052B000144D2BB92A688260116AC160106203E044
:1052C000826829688A4203D101336380002070BD5F
:1052D000B6B18B789178994203D293708068FFF7CA
:1052E000C5FD626822B129682046FFF719FD03E079
:1052F0002B6863605A609C600921304600F02CF9ED
:10530000012070BD642C0020034B00221A60034A68
:105310001268DA80704700BF582C0020F886010818
:1053200008B50F4B0F485A680F4B1968914205D0CA
:105330001A60DA88511E02680A449A809A880388A3
:105340009A420BD1084B064800221A60FFF700FD75
:10535000BDE8084001460248FFF7E2BC08BD00BFB7
:10536000242C0020AC2C0020582C0020426810B5C2
:105370007AB1FFF7EDFC0446FFF790FD0121617063
:105380002046FFF72FF821460448BDE81040FFF7FC
:10539000C7BC42880132428010BD00BF242C0020CF
:1053A000054B1B7823B9054B4FF080521A607047AC
:1053B000034B01221A707047491D002004ED00E0E4
:1053C000481D00201B4B186870B501231A4C437010
:1053D000FFF7D0FC65782646A3780BB306EBC50330
:1053E000586802781AB91989FFF770FC07E0012A9A
:1053F00003D19968FFF724FE01E0FFF7B7FFE378D8
:1054000001359D4208BF0025EFF31083EFF31082B2
:1054100072B6A278013AA270002BDDD162B6DBE74A
:10542000054B06485D70FFF793FCBDE8704000F047
:1054300055B800BF642C00209C240020242C0020A0
:10544000084B1A68084B1A6000225A60072243F87A
:10545000042C064A136843F07F4313604FF0FF307B
:10546000704700BF0887010814E000E020ED00E06D
:105470007047000008B50B4B186801234370FFF715
:1054800079FCFFF74DFF084A136801331360FFF7FB
:10549000A1FCFFF7A3FB0548FFF75AFCBDE8084055
:1054A00000F01CB8642C0020AC2C0020242C002020
:1054B000084B1B68DA78022A0AD01A6BDB6A9A4218
:1054C00003D81268044B9A4202D00120FEF7C4BFF1
:1054D000704700BF642C0020A52E5AE2054B58608F
:1054E00002234370044B1B681BB11B690BB1C06BDB
:1054F00018477047642C0020542C002008B503483E
:10550000FFF726FCBDE80840FFF7E8BF242C002089
:1055100070B5044618B9BDE87040FFF7EFBF0C4EF8
:10552000A278306883789A424FF0010508D9FFF7D6
:1055300021FC33685D702046BDE87040FFF7CEBFA8
:10554000657021460348BDE87040FFF7E9BB00BF26
:10555000642C0020242C002038B50D46014680B173
:105560004FF6FF739842074C02D02068FFF70CFCFF
:10557000236805485D70FFF7EBFBBDE83840FFF797
:10558000ADBF38BD642C0020242C0020024B1868CD
:1055900000B1C078704700BF642C002010B598B9E6
:1055A000194B1B68997083F82410184843689B783E
:1055B0008B4224D9144C2168FFF7B2FB23680122E7
:1055C0005A70FFF79BFF1AE0114B1B88984218D8BE
:1055D0000138104B53F820409CB10B4BA1701B6855
:1055E00084F824109C42E0D02046FFF73FFC63780B
:1055F000012B04D10548FFF7ABFBFFF789FF002023
:1056000010BDFF2010BD00BF642C0020242C002002
:1056100074860108602400202DE9F84311F0FF0F83
:105620000D46804623481646994608BF0135FFF7C8
:10563000A0FD044608B9002638E01F4B06631B880E
:10564000DFF87CE0280AA06200214E1CB342F2D3AE
:105650000EEB86020F4652F8042C3146002AF4D194
:10566000EDB20123E670C4F81C90C4F838902270A3
:105670006370A57084F824506260A260E2602261C9
:105680002262A282E2822283628384F8252018B9F2
:105690000A48FFF76EFD206320464146FEF752FEA2
:1056A000074B204643F82740FFF732FF3046BDE85E
:1056B000F88300BF4828002074860108502200208B
:1056C000602400202DE9F0474B4D18B12B68DB78A2
:1056D00098423BD12C6800236370FEF708FFE0621C
:1056E000FFF7E6FE2B681C6A0127F4B16368B3B1CB
:1056F0002046FFF72DFB00210646FEF773FE3046DD
:10570000FFF7CCFB777031463C48FFF709FBE368B5
:10571000326A6780A660E26034621C46E5E7E268B0
:105720006380A360E3601446DFE72A683449D378D6
:105730003448013B41F82340116BFFF727FD2968EE
:1057400031480C63FFF722FD2C604CE02F4B1B8887
:1057500098424BD82A4B00F1FF38994653F82860FD
:10576000002E43D03046FFF76BFB3046FFF796FB29
:10577000346A4FF0010A04B36368C3B12046FFF7EF
:10578000E7FA00210746FEF72DFE3846FFF786FBB5
:1057900087F801A039461948FFF7C2FAE3683A6A68
:1057A000A4F802A0A760E2603C621C46E3E7E2685E
:1057B0006380A360E3601446DDE749F828401148A0
:1057C000316BFFF7E3FC314634630F48FFF7DEFC33
:1057D0000A48296843689A788B789A4209D9012344
:1057E0004B70FFF79DFAFFF789FE02E0FF20BDE84E
:1057F000F0872046BDE8F087642C0020242C002090
:1058000060240020502200204828002074860108CF
:1058100038B52C4B2C491A8800231846934203D2E2
:1058200041F823000133F9E7284B29481988294C0E
:105830004022FFF779FC284B28481A88284B42F071
:1058400000421968FFF770FC264B1988264B082286
:105850001868FFF769FCFF230025E3701F48A56265
:10586000012363702570A57084F824506560A560DD
:10587000E56025612562A582E5822583658384F83C
:105880002550FFF776FC194920632046FEF75AFDA4
:10589000174B04221A705D60164B1A70DD601D6193
:1058A0009D82154B20461C6002236370FFF716FE95
:1058B000124A134B12781D705D70DA70BDE83840E3
:1058C000FFF722BD74860108602400207686010857
:1058D000482800206C2C00207086010850220020EF
:1058E000F4860108F0860108EC1C002055440008ED
:1058F000242C00203C2C0020642C00200C87010864
:105900009C24002008B51E4B1A6842F47F021A60DE
:105910001B681B0203F07F43DB43B3FA83F3194A8E
:1059200019481268DBB2C3F10803C2F302229342A2
:1059300098BF531C6FF08071026801FA03F322F0E4
:105940007F4203F07F4313430360FFF779FD0F4B62
:105950000028186012DB00F1604000F56440FF226F
:1059600002701A6853099B0003F1604303F5614319
:1059700002F01F02012101FA02F21A6008BD00BF05
:1059800020ED00E00CED00E01CED00E0602C0020BC
:1059900070B50546044600F1A0062046083400F024
:1059A00072F8B442F9D1284670BD38B5054672B6D2
:1059B00000242819083400F05BF8A02CF9D162B655
:1059C00038BD2DE9F7430024074600948DF80440C4
:1059D00001F1FF3801F2E7362346A14618F8015FCE
:1059E0000A2D2FD002AA2C2D1A4406D012F8080C2A
:1059F000284402F8080C013322E0684602F8089CAB
:105A000004F004FCB7F900305BB938808DF8003041
:105A10008DF801308DF802308DF803308DF80430A8
:105A20000EE07B6823F8140001348DF800908DF8A7
:105A300001908DF802908DF803908DF8049000236A
:105A4000B045CBD103B0BDE8F08303460022B0F9E6
:105A500000001A8070470F299ABF436833F811007D
:105A600000207047436823F8112070470180704779
:105A700000230380436887219A1E1E3322F8021FE9
:105A80009A42FBD1704710B50446202000F050FD2B
:105A900060602046FFF7ECFF204610BD384B5A6986
:105AA0002DE9F041374CD20723602AD59868364F4C
:105AB0009968364E9A68364D3840B84201EA060178
:105AC00004BF01279F60B14208BF2D4B02EA0502C7
:105AD00004BF4FF480769E60AA4202BF284B4FF469
