:020000040800F2
:1000000000C00020F95F000831600008316000087E
:100010003160000831600008316000080000000015
:100020000000000000000000000000003160000837
:1000300031600008000000003160000831600008F5
:10004000316000083160000831600008316000084C
:10005000316000083160000831600008316000083C
:10006000316000083160000831600008316000082C
:10007000316000083160000831600008316000081C
:10008000316000083160000831600008E942000872
:10009000ED42000831600008E941000831600008C5
:1000A00031600008316000083160000831600008EC
:1000B000316000080000000000000000316000080E
:1000C00031600008000000000000000031600008FE
:1000D00000000000316000083160000800000000EE
:1000E00031600008316000080000000000000000DE
:1000F0000000000000000000000000000000000000
:100100000000000000000000000000003160000856
:1001100000000000000000003160000831600008AD
:10012000316000083160000831600008316000086B
:100130003160000800000000000000000000000026
:10014000316000083160000831600008316000084B
:10015000316000083160000831600008316000083B
:1001600031600008316000083160000800000000C4
:10017000316000083160000800000000000000004D
:1001800031600008316000083160000810B5054C8E
:10019000237833B9044B13B10448AFF30080012333
:1001A000237010BD280A002000000000708D010897
:1001B000084B10B51BB108490848AFF30080084848
:1001C000036803B910BD074B002BFBD0BDE81040FE
:1001D000184700BF000000002C0A0020708D0108A5
:1001E000240A002000000000154B002B08BF134B11
:1001F0009D46A3F5803A00218B460F461348144ACA
:10020000121A0BF00BFB0F4B002B00D098470E4B34
:10021000002B00D098470020002104000D000D485D
:10022000002802D00C4805F00AF80AF0C3FF2000AD
:10023000290005F039F904F0FFFF00BF00000800B5
:1002400000C000200000000099540008280A002087
:10025000F81C00203F5200080000000038B504469A
:1002600003691546426800681A6003681B6898476E
:100270002068036829461B689847E36862681A602B
:1002800038BD000070B50546044645F8041B164607
:1002900000211C2228460BF0C1FA3146284609F0FD
:1002A00060F9002323626362A362E36862681A60F4
:1002B00020680322082109F0C3FD20680C4909F0D9
:1002C000E1FD204600222D21FFF7C8FF20460B222A
:1002D0003121FFF7C3FF20460A222C21FFF7BEFF82
:1002E000204608222D21FFF7B9FF204670BD00BF30
:1002F00040420F0038B5044603691546426800685D
:100300001A6003681B6898472068036829461B68C1
:100310009847E36862681A6038BD10B5426803699F
:10032000044600681A60036841F080011B68984722
:100330002068036800211B689847E36862681A60B8
:10034000C0B210BD70B50546044645F8041B1646FC
:1003500000211C2228460BF061FA3146284609F09C
:1003600000F9002323626362A362E36862681A6093
:100370001149206809F086FD03220821206809F050
:100380005FFD236962681A600F212046FFF7C5FFF1
:10039000E36862681A60D42802D008480BF0A2FA19
:1003A00020460F222021FFF7A5FF2046002223210F
:1003B000FFF7A0FF204670BD40420F00D86B010838
:1003C00010B5044640F8043B09F06EF9204610BD14
:1003D000043009F0A9B91FB5002300938DF80C1063
:1003E0008DF80D200168022303AA043009F0CCF92E
:1003F00005B05DF804FB70B586B006AA002602F8C9
:10040000091D0446051D009601680123284609F0D0
:10041000BBF9009601230DF117022168284609F067
:10042000D4F99DF8170006B070BD00221146FFF701
:10043000D2BFFFF7FABF70B50E4600210546FFF7A1
:10044000DAFF00F06F02044642F010020021284655
:10045000FFF7C1FF05200AF011F832462846FE21B9
:10046000FFF7B9FF224600212846FFF7B4FF052019
:100470000AF004F864F05E022846D2B20021BDE81A
:100480007040FFF7A8BF1FB58DF80B301B128DF819
:100490000C308900002300938DF8092006311212D8
:1004A000052304468DF808108DF80A20016802AA79
:1004B000043009F069F9642009F0C6FF06212046DE
:1004C000FFF799FF642009F0BFFF07212046FFF7DF
:1004D00092FF642009F0B8FF08212046FFF78BFF48
:1004E000642009F0B1FF09212046FFF784FF04B022
:1004F00010BD00007F2810B516D931B1FF2812D8E1
:100500000A4B803833F8100010BD084A32F8114009
:1005100084428BB203D001318029F7D10B4603F11D
:100520008000C0B210BD002010BD00BFE86B010804
:100530007F2870B506D8A0F16103192B17D8203891
:1005400080B270BD0A4D0C2200214FF4F774631A7B
:1005500001EB530335F81360B04205D094BF1C463D
:100560001946013AF3D170BD024A32F8130070BD4A
:10057000C4700108E86C010808B5044B53F820006A
:1005800003689B6B9847C0B208BD00BF4C0C0020AD
:1005900008B5044B53F8200003685B6B9847C0B262
:1005A00008BD00BF4C0C002010B5054C54F82000CD
:1005B0000468E46BA047002814BF0420002010BD8D
:1005C0004C0C002010B5054C54F820000468246C35
:1005D000A047002814BF0420002010BD4C0C0020B0
:1005E000012938B50C46154610D004D3032918D17B
:1005F0000123136013E00E4B53F8200098B10368F9
:100600005B6C9847003018BF012038BD084B53F889
:10061000200040B103689B6C984730B128600020EF
:1006200038BD042038BD032038BD204638BD00BF8A
:100630004C0C002001380A44914204D011F8013BCF
:1006400000F8013FF8E770470244904202D000F8FA
:10065000011BFAE7704700F10B01002310F8012B92
:1006600002EBC31202EB5303884203F0FF03F5D100
:1006700018467047026810B58AB111460B4611F84A
:10068000014B1F2C09D93A2CF8D1511C8B4206D1B1
:100690001278302A03D101330360002010BD4FF0DF
:1006A000FF3010BD08B568B103685BB11A784AB174
:1006B000D9888288914205D15878FFF75DFF10F004
:1006C000010000D0092008BD03692DE9F0410D4665
:1006D0000931002B35D042690024561E2E2716F80A
:1006E000013F202B04F1010410D10B2CF7D1D37A58
:1006F0002B72D3692B60547E137E43EA0423AB80B4
:10070000D47D937D43EA0423EB801AE0052B3CD093
:10071000092C01D10F700131A3F1410EBEF1190F67
:100720000CD8082C92F80CE08CBF4FF0100C4FF056
:10073000080C1CEA0E0F1CBF2033DBB20B7001311A
:10074000D3E700240C70AE6926B30369C3B1EB692B
:10075000B3B1028C4FF6FF739A4211D0D0F81C80CF
:10076000771E38F8140060B10021FFF7C3FE38B1DE
:10077000EB69013B9C4203D2013407F8010FF0E71B
:10078000002400233355BDE8F081092C4FF0E50328
:10079000D4D1BFE7BDE8F081CA7E8B7E032843EA4F
:1007A000022301BF487D0A7D42EA002243EA024358
:1007B00018467047F8B5C56A00F1300704460123B2
:1007C0002A4639464078FFF7FDFEA0B9236AA269A0
:1007D0002071EB1A934201D30020F8BDE678012E78
:1007E000FAD9A36960781D442A4601233946FFF7E8
:1007F000E9FE013EF3E70120F8BD03790BB1FFF7F5
:10080000D9BF1846704770B50446FFF7F6FF054696
:1008100000284FD12378032B44D16379012B41D198
:1008200004F1300601464FF400723046FFF70CFF2A
:10083000552284F82E22AA2284F82F22522284F8EC
:10084000302084F83120612284F8322084F8172285
:10085000226984F81822412184F8331084F8161292
:10086000111284F81912110C120E84F81B22E2687E
:1008700084F81A12111284F81C2284F81D12110C2B
:10088000120E84F81F22E26984F81E1272200132CF
:1008900084F8140284F81502E26231466078FFF7AA
:1008A00091FE6571002211466078FFF799FE0030D5
:1008B00018BF012070BDC36A8B4270B506460D4655
:1008C00011D0FFF79AFF044670B92A46012306F1BA
:1008D00030017078FFF768FE00281CBF4FF0FF352D
:1008E0000124F56200E00024204670BD002310B50D
:1008F00003714FF0FF33C3620446FFF7DCFFC0B95A
:1009000094F82F2294F82E3243EA02234AF6552215
:10091000934210D1D4F86630084A23F07F439342C3
:100920000AD0D4F8820020F07F40801A18BF01203E
:1009300010BD032010BD022010BD00BF4641540071
:100940002DE9FF4100230360074608461546FFF7DF
:1009500091FE061EC0F21081914B53F82640002CE8
:1009600000F00C813C60237883B16078FFF704FECF
:10097000C1070BD4002D00F0038100F0040303F045
:10098000FF00002B00F008810A2005E10023F0B2EF
:1009900023706070FFF7FCFDC20700F1F3800DB11A
:1009A0004307F1D400212046FFF7A0FF01281CD106
:1009B00004F5FB71002211F8043C03B10B684DF8FB
:1009C00022300132042A01F11001F4D100265DF831
:1009D00026502DB129462046FFF788FF60B100E080
:1009E00002200136042EF2D1CEE0032800F0CF80A1
:1009F00008B10D20D0E0054694F83C2094F83B3037
:100A000043EA0223B3F5007FF3D194F8463094F81B
:100A100040C094F8470084F803C053EA00200CF16A
:100A2000FF3308BF606DA061012BE2D894F83D3020
:100A3000A370002BDDD05A1E1A42DAD194F842E09E
:100A400094F8412042EA0E2E1EF00F0FA4F808E0A1
:100A5000CFD194F8441094F8432094F83F6052EAC0
:100A6000012294F83E1008BF226D51EA0621C0D041
:100A700000FB0CFC01EB1E176744BA42B9D3D21B32
:100A8000B2FBF3F3002BB4D040F6F572934203F1BE
:100A9000020605EB01022F4410D94FF6F5718B4287
:100AA00077D96661E5612262A762BEF1000FA0D12D
:100AB000E36D63624FF00308B30018E04FF00108E4
:100AC0006661E5612262A762BEF1000F91D0B8F1C4
:100AD000020F4FEA460318BF9B19624418BF06F085
:100AE000010662621CBF06EB53034FF0010803F2DC
:100AF000FF13B0EB532FFFF47CAF4FF0FF332361B4
:100B0000E360B8F1030F4FF0800363712AD194F8CA
:100B1000612094F8603043EA0223012B22D1691C42
:100B20002046FFF7C8FEE8B994F82F2294F82E3239
:100B3000607143EA02234AF65522934212D1226B96
:100B4000184B9A420ED103F1FF53D4F8142203F547
:100B5000005320339A4201BFD4F818322361D4F8ED
:100B60001C32E360104A84F80080138801339BB282
:100B70001380E38000200FE00B200DE00C200BE041
:100B8000284609E0032007E003287FF432AF012064
:100B900002E04FF0020893E704B0BDE8F08100BF27
:100BA000480A002052526141440A00204369023938
:100BB000023B99423DBF8378806A01FB030000201D
:100BC00070470129F8B506460C465DD9436999423C
:100BD0005AD20378022B29D0032B39D0012B53D1C1
:100BE00001EB5105016A01EB5521FFF764FE10B1DD
:100BF0004FF0FF30F8BD6F1C316AC5F3080535446E
:100C000001EB5721304695F83050FFF754FE00288D
:100C1000EED1C7F308073E44E30796F8300045EAF3
:100C200000204CBF0009C0F30B00F8BD016A01EBC6
:100C30001421FFF740FE0028DAD1640004F4FF74A9
:100C4000331993F8310093F8303043EA0020F8BDAF
:100C5000016A01EBD411FFF72EFE0028C8D1A300D2
:100C600003F4FE7404F13003334434449878DA78A2
:100C70005B78000440EA026040EA032094F83030D8
:100C8000184320F07040F8BD0120F8BD826870B5AF
:100C90000446012A0D46E18001D1022070BD03689F
:100CA00059698A42F9D252B91978032901D1596A8E
:100CB00021B919898D42F0D2586A15E00A469E780A
:100CC0003601B542114620680CD3FFF77AFF431C6A
:100CD000024618D00128E0D923685B699842DCD22B
:100CE000AD1BEEE7FFF762FFE2600028D5D0236876
:100CF00000EB1510303305F00F0503EB45152061AF
:100D00006561002070BD012070BD01292DE9F04111
:100D100006460C4615466FD9436999426CD2037852
:100D2000022B3BD0032B49D0012B65D101EB51079E
:100D3000016A01EB5721FFF7BEFD00285DD107F1E5
:100D40000108C7F30807374414F001041FBF97F8E0
:100D5000303003F00F022B0103F0F00314BF1343F4
:100D6000EBB287F83030316A0123337101EB58213F
:100D70003046FFF7A0FD00283FD1C8F308033344F5
:100D800014B1C5F3071506E093F83020C5F3032529
:100D900022F00F02154383F8305029E0016A01EB7D
:100DA0001421FFF788FD40BB640004F4FF7433197D
:100DB00083F830502D1283F8315019E0016A01EBAD
:100DC000D411FFF778FDC0B9A40004F4FE7404F157
:100DD000300333443444DA78120602F0704215438B
:100DE0002A1284F830505A702A0C2D0E9A70DD7039
:100DF00001233371BDE8F0810220BDE8F081F8B530
:100E000005460F4631B9C66896B143699E4228BF70
:100E100001260EE0FFF7D5FE01283FD9441C02D180
:100E20004FF0FF30F8BD6B69984238D33E4600E082
:100E3000012634466B6901349C4204D3012E01D84B
:100E40000020F8BD022421462846FFF7BAFE30B143
:100E5000411CE5D0012821D0B442EBD1F0E76FF07E
:100E6000704221462846FFF750FFA8B957B92B69B1
:100E7000EC605A1C0ED0013B2B616B7943F00103EF
:100E80006B7107E0224639462846FFF73EFF0028EF
:100E9000EDD001E02046F8BD0128C1D00120F8BD09
:100EA0002DE9F843C6880136B3B204460F4613B99C
:100EB0000420BDE8F8830369002BF9D016F00F0871
:100EC00059D1C16801330361006819B903899E4291
:100ED000EED250E08378013B13EA16134BD1FFF7B3
:100EE00070FE0128054602D80220BDE8F883421CA6
:100EF00002D10120BDE8F883206843699D4234D3C4
:100F0000002FD5D0E168FFF77AFF054600283BD0D7
:100F10000128E9D0431CECD02068FFF76EFC07469F
:100F20000028E6D120684FF4007239463030FFF7D0
:100F30008BFB226829461046FFF738FE4FF0010967
:100F4000D06223689A7897420CD283F80490206884
:100F5000FFF753FC0028CCD12268D36A0133D36257
:100F60000137EEE7DA6AD71BDF62E56029462068C1
:100F7000FFF71CFE20612368E680303303EB481343
:100F800063610020BDE8F8830720BDE8F883000016
:100F90002DE9F74F4FF6FF784FF0FF090646A0F80E
:100FA00020804C4631693068FFF785FC002840F00E
:100FB000868075692B78002B6BD0E52B7CD0E97A85
:100FC00001F03F02090702D50F2A75D101E00F2A6F
:100FD0004ED1D6F81CB0BBF1000F53D05F0605D53B
:100FE00003F0BF04F3886A7B338402E0A34248D154
:100FF0004A4695F80D90914542D1EF7EAB7E43EA8B
:1010000007273FB2002F3CD12B7803F03F03013B71
:101010000D2202FB03FA01212A4BF85C2A1892F8F0
:1010200001E02A5C42EA0E2299B1BAF1FE0F28D8FB
:1010300010460192FFF77CFA00903BF81A00FFF788
:1010400077FA0099019A81421BD10AF1010A1146EF
:1010500001E0424515D101370D2FDDD12A78500628
:1010600003D511B13BF81A305BB9013CE4B209E099
:101070008CB92846FFF7EFFA48450CD120461EE010
:101080009146FF2400213046FFF70AFF002889D04F
:1010900015E0042013E0B369DA7AD2070CD405F125
:1010A0000B02954206D015F8010B13F8011B88427C
:1010B000F7D001E0002002E0A6F82080E1E703B0CD
:1010C000BDE8F08FA07401082DE9F74F0B782F2BA6
:1010D0000746884601D05C2B01D108F101080024A5
:1010E000BC6098F800301F2B5DD821463846FFF7CA
:1010F000CDFD7C6112E101313BF81120202AFAD0AC
:101100002E2AF8D009B144F003044A4632F8020D01
:101110002E2840F096804FF0000A4FF008095546FF
:101120003BF811004A1C002840F08F80BB691A78F8
:10113000E52A04BF05221A70B9F1080F04BFAD00FB
:10114000EDB205F00C030C2B00F0CC8005F003028F
:10115000032A00F0C780A10709D405F00305012D7B
:1011600008BF44F01004042B08BF44F00804BB6916
:101170000021DC723846FFF789FD10B93846FFF7C9
:1011800007FFBB69DB7A002840F0AF805A0700F107
:10119000C5807969CB7ADB0640F1AE803B68187870
:1011A000FFF7FAFAB86098F800302F2B444608F1A0
:1011B0000108F8D05C2BF6D0D7F81CB004F1FF3949
:1011C000ABF10205002619F8010F1F2806F10108EE
:1011D0001AD92F2818D05C2816D0B8F5807F00F0D7
:1011E0008D800121FFF786F9002800F087807F2895
:1011F00006D84C4911F8012F12B19042FAD17DE086
:1012000025F8020F4646DEE72028A0440BEB4602F5
:1012100034BF04240024002E70D032F8021D20298F
:1012200001D02E2901D1013EF5E7002520212BF820
:1012300016500B22B869FFF707FA0BEB460929464F
:101240005AE7013E7FF462AF65E7202803D02E28DD
:1012500005D1B24208D044F00304114660E7CA4504
:1012600004D2B24218D14BE0CA4549D3B9F10B0FB1
:1012700004D144F003044FF00B0957E7B24203D006
:1012800044F003043FF652AFAD00EDB232464FF0EA
:101290000B094FF0080AE0E77F280CD900210192E2
:1012A000FFF728F9019A18B11F4B184410F8800C69
:1012B00044F0020428B11D4B13F8011F29B18842E4
:1012C000FAD144F003045F2006E0A0F1410189B2A5
:1012D000192919D845F00205B96901F80A000AF17F
:1012E000010ABAE744F0020435E7042816D113F0E6
:1012F000040F08BF052011E005200FE006200DE0D7
:10130000B9F10B0FC0D1B4E7A0F1610189B219297D
:101310009EBF203845F0010580B2DDE703B0BDE88F
:10132000F08F00BFAC74010808750108B57401089E
:101330002DE9F04F8469C66987B00C220546214625
:101340000DEB0200FFF776F99DF81730DB0762D549
:101350000023E3720127EB610B2203A92046FFF76C
:1013600069F9052F15D9B01E3B4630F8022F8AB116
:10137000102102F0010E0EEB430313F4803F1CBF5B
:1013800083F4883383F0210301394FEA5202F0D10C
:10139000EBE73B46072203F00F0000F1300139294B
:1013A00088BF00F13701013A01A810441B094170C0
:1013B000F1D106A911447E2001F8140C9A4202D002
:1013C000E15C202901D1234401E00133F6E7072A3B
:1013D0009BBF06A98918202111F8141C03F8011BD2
:1013E000A3EB040198BF01320729F0D90021284658
:1013F000FFF74CFC40B92846FFF7CAFD20B901377A
:10140000642FA9D10720A7E0042840F0A5809DF80B
:101410001730E372EE619DF817309B070AD5002460
:1014200036F814300BB10134FAE719340D23B4FB4C
:10143000F3F400E0012400212846FFF727FC0028F0
:1014400040F08780064629692868FFF734FA0028AB
:101450007FD16B691B78E52B00D02BB90136B442E4
:1014600003D1013C08D156E0064601212846FFF78A
:1014700017FD0028E7D06CE0E9882846091BFFF734
:1014800005FC002868D1A869DFF8D480FFF7E3F8ED
:101490000F27064629692868FFF70DFA034600283A
:1014A0005AD16A69D5F81C9010735FFA84FE907661
:1014B000D0760EF1FF310D2041435673D772184696
:1014C0004FF6FF7A504513F808C018BF39F81100DD
:1014D00002F80C0003F10103944418BF01314FEAF4
:1014E000202B002808BF50460D2B8CF801B0E9D105
:1014F0004FF6FF73984229D039F8113033B382F890
:1015000000E02B6801221A7100212846FFF7C8FC71
:1015100010BB013CBED129692868FFF7CCF904460D
:1015200090B9014620226869FFF78EF80B22A9695D
:101530006869FFF77FF8AB696A69DB7A03F0180323
:1015400013732B6801221A71204605E04EF0400EFD
:10155000D5E7042808BF072007B0BDE8F08F00BF1B
:10156000A074010870B5018CC5884FF6FF739942CD
:1015700008BF29460446FFF789FB0346E8B9E5267C
:1015800021692068FFF797F9034698B901462022A0
:101590006069FFF759F862691670226801211171BC
:1015A000E288954209D919462046FFF779FC03469F
:1015B0000028E5D0042B08BF0223184670BD0000A8
:1015C0002DE9F0474FF0FF08404E054644460427FA
:1015D0002969002969D02868FFF76DF907460028B6
:1015E00065D168690378002B6BD0E52B54D02E2B86
:1015F00052D0C27A02F03F0222F0200108294BD0DB
:101600000F2A41D15A0605D503F0BF04EB88427B6F
:101610002B8402E0A3423FD1424690F80D809045D2
:1016200039D1C27E837E43EA02231BB2A3BB027878
:10163000EF6902F03F02013A0D214A434FF0010EDB
:101640004FF6FF7913F806C000EB0C0191F801A0EA
:1016500010F80C1041EA0A21BEF1000F06D0FE2A54
:101660001AD827F812108E46013201E0494513D1ED
:1016700001330D2BE6D103785B061BD5FE2A0BD870
:10168000002327F8123015E0BCB9FEF7E4FF40450F
:1016900013D1002717E09046FF2400212846FFF7CA
:1016A000FFFB0746002893D001E0002FF1D0002374
:1016B0002B6108E0013CE4B2EFE74FF6FF732B84A7
:1016C00001E00427F3E73846BDE8F087A07401087D
:1016D000012970B504460D4624D94369994221D2A7
:1016E0006369AB4201D8002070BD29462046FFF750
:1016F00068FA06460028F6D0012813D0411C13D002
:10170000002229462046FFF700FB70B923695A1CC6
:1017100001D13546E4E701332361637943F00103E6
:101720006371F6E7022070BD012070BD1FB5019006
:1017300004A8009140F8041D1446FEF79BFF011E0B
:1017400014DB0D4B53F8210008B100220270019800
:1017500008B10022027043F8210050B1012C07D1DA
:101760000022694601A8FFF7EBF802E00B2000E039
:10177000002004B010BD00BF480A00202DE9F0434E
:101780008FB0144601910646002800F08D8000239A
:10179000036002F01E0201A905A8FFF7D1F8002896
:1017A00040F0898002AB0B930199444B0C9305A840
:1017B000FFF78AFC0A9D10B9002D08BF062014F01F
:1017C0001C0F04F01F0749D050B1042873D105A89D
:1017D000FFF7AEFD00286ED147F008070A9D05E02F
:1017E000EB7A13F0110F65D163075FD43C0741D545
:1017F00001F0AAF90024C0F30743C1B2C0F30722E5
:10180000DDF81480A973000E2B74A9752B76EC7289
:101810002C776C77AC77EC77EA736874EA75687646
:1018200098F800002946FEF7B7FF0123AC76EC7666
:101830002C756C7588F804300446C8B101464046E2
:10184000D8F82C90FFF744FF002834D10598013CCC
:10185000C4604946FFF72FF840B12CE058BBEB7A43
:10186000D80625D4A10701D5DA0723D43B0701D533
:1018700047F02007DDF814800024D8F82C30F361FD
:101880003562B771F47198F800002946FEF784FFBD
:101890003061EB69F360B8F80630B460B461C6F843
:1018A0000080B380204606E0092004E0082002E022
:1018B000042000E007200FB0BDE8F0834C0A0020B0
:1018C0002DE9F74F99460023C9F8003005468846B0
:1018D0001446FEF7E7FE002840F09780E8790028DC
:1018E00040F09380AB79D80740F18C80EB68A86812
:1018F000181A844228BF044605F1240B002C00F07E
:101900008380AA68C2F30803002B62D12868837819
:10191000013B03EA522313F0FF0311D10AB92869EE
:1019200004E069690193FFF74CF9019B012801D894
:10193000022002E0411C02D10120E87165E06861EB
:10194000D5F800A0696901935046FFF72FF90028E8
:10195000EED0019B660A00EB03071ED09AF8022026
:101960009AF801009919914288BFD61A33463A462F
:101970004146FEF719FE0028DED1AB795A060AD59A
:10198000A869C01B864206D94FF40072594608EB7D
:101990004020FEF74FFE760229E0AA69974217D051
:1019A000AB795B060BD5012359469AF80100FEF787
:1019B00009FE0028C0D1AB7923F04003AB71286841
:1019C00001233A4659464078FEF7EEFD0028B3D190
:1019D000AF61A968C1F30801C1F50076A64228BF2E
:1019E00026462944324624314046FEF723FEAB68A2
:1019F0003344AB60D9F800303344B044C9F8003008
:101A0000A41B7BE7072000E0204603B0BDE8F08F71
:101A100070B50446FEF746FE00284BD1A37903F0CB
:101A2000200202F0FF00002A44D05B060DD520689A
:101A3000A2694078012304F12401FEF7C3FD0028C8
:101A400036D1A37923F04003A371E1692068FEF742
:101A500032FF064670BB256AEB7A43F02003EB7237
:101A6000E3682B77E3681B126B77E389AB77E37B43
:101A7000EB772369AB761A121B0C2B751B12EA76D7
:101A80006B7501F061F80312A875EB75030C000E7D
:101A90002B766876AE74EE74A37923F02003A371DD
:101AA000236801221A712068BDE87040FEF7ABBEC2
:101AB000012070BD70BD2DE9F74F9B460023CBF888
:101AC0000030044689469046FEF7ECFD002840F0C1
:101AD000BB80E579002D40F0B680A379990740F1ED
:101AE000B080A36813EB080F80F09C8004F12403FE
:101AF0000193B8F1000F00F09580A268C2F30803CB
:101B0000002B71D120688378013B03EA522313F044
:101B1000FF03009316D112B9216931B900E0616960
:101B2000FFF76DF9014600287CD0012901D1022080
:101B300002E04A1C02D10120E07185E02369616165
:101B400003B92161A3795B060CD52068A2690199CC
:101B500040780123FEF736FD0028ECD1A37923F06D
:101B60004003A371D4F800A061695046FFF71EF846
:101B70000028DCD0009B5FEA582600EB030722D048
:101B8000009A9AF802309AF8010032449A4284BFCF
:101B9000009A9E1A33463A464946FEF713FD00283E
:101BA000C9D1A169C91B8E420AD94FF4007209EB51
:101BB00041210198FEF73EFDA37923F04003A37174
:101BC0007602012522E0A3699F420CD0A268E36857
:101BD0009A4208D201233A4601999AF80100FEF789
:101BE000E3FC0028A7D1A761A068C0F30800C0F5F6
:101BF0000076464528BF46462044324649462430B2
:101C0000FEF718FDA37943F04003A371A3683344A2
:101C1000A360DBF800303344B144CBF80030C6EBAE
:101C2000080866E7A368E268934288BFE360A37987
:101C300043F02003A37135B12046FFF7E9FE0020F1
:101C400002E0072000E0284603B0BDE8F08F10B5A1
:101C50000446FFF7DDFE20B92046FEF723FD00B95C
:101C6000206010BD70B504460D46FEF71BFD002830
:101C700040F08E80E079002840F08A80E368AB4233
:101C800004D2A27912F0020F08BF1D460022A368F9
:101C9000A260002D72D02068867876026BB1013B7D
:101CA0006A1EB3FBF6F1B2FBF6F28A4205D372422A
:101CB0001340A360ED1A61690FE0216961B9FFF774
:101CC0009EF80128014601D1022002E0013002D134
:101CD0000120E07170BD21616161B1B900252AE088
:101CE000A37920689A0713D5FFF789F8014698B1C0
:101CF0004B1CEDD00129E7D923685B699942E3D2F7
:101D0000A36861613344A360AD1BB542E8D804E029
:101D1000FEF757FF0146EBE73546A3682B44A36067
:101D2000C5F30803002BD9D02068FEF73FFF002839
:101D3000CAD000EB5525A368C3F30803F3B1A26929
:101D400095421BD0A37913F0400F04F124060BD069
:101D50002068012331464078FEF734FC0028B7D1D3
:101D6000A37923F04003A371206801232A4631465A
:101D70004078FEF719FC0028AAD1A561A368E268A3
:101D8000934281BFE360A37943F02003A371002055
:101D900070BD000010B586B00446019140B300222A
:101DA00001A902A8FEF7CCFDF8B9029B236003ABA2
:101DB000A361154BE36101992046FFF785F9E8B966
:101DC000616939B1CB7ADB060ED5029B1878FEF734
:101DD000E3FCA060029BDB88A38000212046FEF785
:101DE00055FF0428034605D105200023236008E0A1
:101DF000092006E0002BF8D1184602E00428F3D0B1
:101E0000F3E706B010BD00BF4C0A002010B5044631
:101E1000FEF748FC00B9206010BD00007FB5044605
:101E20000E46FEF73FFC0546F8B926B901462046A6
:101E3000FEF72CFF18E001ABA3610D4BE3612046D8
:101E4000FFF7BEFB042801D1256100E060B93146EF
:101E50002046FEF739FC00212046FFF721F8042830
:101E600002D10023236100E00546284604B070BD7E
:101E70004C0A002030B599B018A9012241F85C0D38
:101E800006A8FEF75DFD00283BD103AB0C9301993A
:101E90001D4B0D9306A8FFF717F9002831D10B99B8
:101EA000E1B1CD7AEA071BD4069B1878FEF774FCE3
:101EB0000446B8B1EB0615D506A90FA82422FEF7F3
:101EC000B9FB02210FA81194FEF7E0FEC8B90FA8D4
:101ED000FFF776FB20B1042804D012E0062010E0C2
:101EE00007200EE006A8FFF73DFB50B91CB9069885
:101EF000FEF789FC05E021460698FFF7E9FB00287C
:101F0000F5D019B030BD00BF4C0A00202DE9F04FCC
:101F100093B012AC44F8340D00F016FE214606468C
:101F2000012209A8FEF70CFD04460546002840F0F2
:101F3000C68006AB0F930599634B109309A8FFF772
:101F4000C3F8044680B1042840F0B98029460998B6
:101F5000FEF755FF054648B1012809D1022429465C
:101F60000998FFF7B5FBAAE00824A8E00724F6E7E4
:101F7000431C7FD00998FEF740FC04460028EED1B0
:101F8000099F29463846FEF711FE07F13008214621
:101F900004904FF400724046FEF756FB0B222021BE
:101FA0004046FEF751FBC6F3074300939DF800300F
:101FB00087F84830330E01939DF8043087F8493094
:101FC000EBB202939DF8083087F84A301022C5F32F
:101FD00007235FFA86FAC6F3072B039325FA02F666
:101FE0009DF80C3087F83B202E245FFA86F9360ADC
:101FF00087F84B302022414607F1500087F83040E7
:1020000087F846A087F847B087F8449087F845607E
:10201000FEF710FB099987F8514008780B9A049B4A
:10202000032803D1486A824208BF002287F86A2049
:102030001012120C87F86420121287F86B0087F8D0
:1020400065208F78C7B109985A1CC3624FF001030D
:1020500003710492FEF7AEFB044600287FF47FAFC5
:1020600001464FF400724046013FFEF7EDFAFFB221
:10207000049BE7E7012472E709A8FFF759F9044632
:1020800000287FF46CAF0E9B099883F816A01022ED
:10209000DA729DF800201A769DF804205A769DF891
:1020A00008209A769DF80C2083F817B0DA7683F82A
:1020B00014905E7501230371FEF7A5FB04462046CC
:1020C00013B0BDE8F08F00BF4C0A002030B59FB0C0
:1020D0000122019000910CA801A9FEF731FC002813
:1020E00072D10C9B159303AB12930199374B139349
:1020F0000CA8FEF7E9FF002866D11199002954D0F9
:1021000015220B3106A8FEF795FA24220CA915A872
:10211000FEF790FA6846FEF7ADFA002847DB009913
:1021200015A8FEF7D1FF002843D004284CD115A8EC
:10213000FFF7FEF8002847D11A9D13220DF11A016E
:1021400005F10D00FEF776FA9DF818300C9C43F06F
:102150002003EB7201232371EB7ADB062BD5179B4F
:102160000E9A9A4227D029462078FEF715FB0146A1
:102170002046FEF71BFD014628B32046FEF79BFBD9
:1021800010BB0C9A92F851302E2B14D1179B82F869
:102190006A3019121B0C82F864301B1282F8653009
:1021A000012382F86B10137105E004200CE00B2072
:1021B0000AE0082008E00CA8FFF7D4F920B90C9831
:1021C000FEF721FB00E002201FB030BD4C0A0020CA
:1021D0002DE9F04F89B001290590894616461ED891
:1021E00005A8FEF747FA00281BDB864B53F8204072
:1021F000CCB10023C7B223703846FEF7C9F9C20735
:1022000013D4430713D407AA01213846FEF7E8F98F
:1022100008B101209FE2079B7F2BFAD909E0132028
:1022200099E20B2097E20C2095E2032093E20A202A
:1022300091E2B9F1000F14BF00223F229B1A0192D4
:10224000721E3242079302D1002E40F06B826E481C
:1022500000224FF4FA61B3FBF1F130F81250A942B9
:1022600001D20132F9E7694931F81260B6F5007F11
:1022700001D3760A00E01EB1812E28BF802600E03F
:10228000012640F6F572B3FBF6F5954240F24F8217
:102290004FF6F572954240F25982AD0005F20725DE
:1022A00000226D0A4FF0030803924FF0200A019AB2
:1022B00052440292039A05EB020B029A9344019A4C
:1022C000B21A5A44934201D20E2044E206AA0321D4
:1022D0003846FEF785F9002840F02182069B013B35
:1022E000B3F5004F80F01B82069A0399531EB8F194
:1022F000030FC2F100025B4403EA020308BF029A23
:10230000CBEB030304BFD2189A44069308BF1346CD
:10231000079A0CBF0293ED18CAEB02035B1BB8F1DE
:10232000020FA3EB0103B3FBF6F3049305D1049969
:1023300040F6F5739942C7D912E0B8F1030F06D100
:10234000049A4FF6F5739A42BED90C230DE0B8F10A
:10235000010F05D1B2F5803F2CBF0623012304E015
:10236000B2F5803F2CBF06230423B9F1000F4FD1F3
:1023700004F1300B4FF4007249465846FEF764F9F9
:1023800084F8F231FE23079A84F8F331019B84F834
:10239000FA21991843F6C163B1FBF3F18B0843F0BE
:1023A0003F0384F8F4313F2384F8F631131284F8A4
:1023B000FB31130C84F8FC3155230120120E84F8F4
:1023C0002E32AA2384F8EF0184F8F001069184F8F4
:1023D000F51184F8FD2184F82F3284F8F191034639
:1023E00084F8F79184F8F89184F8F9914A465946AF
:1023F0003846FEF7E7F800287FF40BAF4FF0F80BF4
:1024000008E000BF480A002088750108F27401083E
:102410004FF0F00B04F130094FF4007200214846F0
:10242000FEF712F90B22CD494846FEF703F90023C7
:10243000B8F1030F84F83B3084F8413018BF022311
:10244000022284F84230079B84F83C200122B3F535
:10245000803F84F840204FEA232221BF84F8503087
:1024600084F851201A0C1B0E34BF84F8433084F8D2
:1024700053304FF03F0384F83EA084F848304FEAD1
:102480002A2A4FF0FF0384F83FA084F84A304FF027
:10249000000A9DF8043034BF84F8442084F85220A8
:1024A00084F84C3084F83D6084F845B084F849A045
:1024B00084F84BA084F84DA084F84EA084F84FA077
:1024C00000F042FBB8F1030F06904FEA20224FEADA
:1024D000104331D184F875302B1284F855302B0C11
:1024E00084F856302B0E84F85730022384F85C3081
:1024F000012384F86030062384F86230802384F856
:10250000730084F87030000E292384F8742084F856
:10251000760084F8545084F85DA084F85EA084F8B6
:102520005FA084F861A084F863A084F8723013225D
:102530008B4904F1770017E084F859302B1284F8A6
:102540004730802384F8570084F85430000E292344
:10255000844984F8582084F85A0084F8465084F856
:102560005630132204F15B00FEF764F8552384F81B
:102570002E32AA2384F82F32019A01234946384685
:10258000FEF720F800287FF444AEB8F1030F06D11F
:10259000019A0123063249463846FEF713F84FF4F4
:1025A000007200214846FEF74FF8B8F1030F14D02F
:1025B0006D4BB8F1010F18BF6FF0FF0343EA0B0337
:1025C000FF224FEA136B069384F8303084F83120F1
:1025D00084F8322084F833B01CE06BF0FF030693DC
:1025E00084F83030FF2384F8313084F8323084F8B6
:1025F000333084F8343084F8353084F8363084F859
:10260000373084F8383084F8393084F83A300F2382
:1026100084F83B30029B029A494603F1010A38468E
:102620000123FDF7CFFF014600287FF4F2AD4FF400
:1026300000724846FEF708F801230693069B9D4268
:102640000FD901235246494638460AF1010BFDF7DE
:10265000B9FF00287FF4DDAD069B01330693DA460F
:10266000ECE7039BB8F1030F18BF1E4652465644D1
:10267000012349463846551CFDF7A4FF00287FF486
:10268000C8ADB5422A46F3D1B8F1030F3ED152236B
:1026900084F8303084F83130612384F8323084F8A3
:1026A0001732049B84F81D02013B412284F8332039
:1026B00084F81622C3F3072284F8183284F819220A
:1026C0001A0C1B0E84F81B32022384F81C3255238B
:1026D00084F81A2284F82E32019A84F81E02AA2362
:1026E000722184F82F3201231A4484F8141284F8DA
:1026F000151284F81F0249463846FDF763FF019A18
:102700000123073249463846FDF75CFF0022114697
:102710003846FDF765FF003018BF01201BE001239C
:102720000693E1E5B6F5007FBFF4A3ADA4E505EBA4
:10273000450501356D0803354FF0010805F2FF1519
:1027400020226D0A03924FF0010AB0E502356D00B8
:102750004FF00208F2E709B0BDE8F08FBD74010840
:10276000C9740108DD74010800FFFF0003681B6ADB
:10277000184703681B6B18470368DB6A1847036830
:102780009B6A184700234381704740897047418105
:1027900070477047F8B503685B6904469847074679
:1027A00040F2011002F084FD236806469B69204632
:1027B00098470025236831469B68204698470028A3
:1027C00001DD0135F6E7236839461B692046984745
:1027D000304602F089FD2846F8BD10B5044602F0E7
:1027E00083FD204610BD38B504460430FFF70EFBCC
:1027F00005461CB1236820465B689847284638BDCB
:1028000030B589B000F1280405464FF4807369465D
:10281000043006940793FFF701FB60B99DF80900A7
:1028200060B195F8283043B90D220DF10901204619
:1028300008F0F6FE01E0002000E0204609B030BDBF
:10284000036810B55B6A0C46984730B1014640F208
:102850000112204608F0E4FE012010BD70B50446C8
:10286000064B44F8043B0D4606460FCD0FC40FCD72
:102870000FC42B682360304670BD00BFA8750108E7
:1028800000207047036801221B6900211847036874
:1028900000221B69114618474FF0FF307047112086
:1028A000704770470368DB6A184703685B6B18471B
:1028B0000020704700697047704738B504460430FF
:1028C000FFF7C5F905461CB1236820465B689847A9
:1028D000284638BD10B5044602F006FD204610BD5E
:1028E00008B50430FFF794F8003018BF01204042CB
:1028F00008BD022A10B5044601D1036902E0012A8D
:1029000001D1C3681944201DFFF7ACF908B9E0688C
:1029100010BD4FF0FF3010BD07B5043001ABFEF71E
:10292000CFFF08B9019801E04FF0FF3003B05DF828
:1029300004FB07B5043001ABFFF7BDF808B90198F7
:1029400001E04FF0FF3003B05DF804FB84B038B510
:1029500005AC84E80E00074B0546214640F8043BD1
:102960004FF4097208F05CFE2846BDE8384004B018
:10297000704700BFE47501080020704700207047D1
:102980000020704738B50C4611460268156A1A4691
:10299000A84710B12060002038BD4FF0FF3038BD8F
:1029A000036810B59B6A0C461146984710B1206029
:1029B000002010BD4FF0FF3010BD00F5117108B5BB
:1029C00001221430FEF7B2FE003018BF0120404251
:1029D00008BD036810B55B6C04469847024640B9D1
:1029E00004F51171FEF7A2FE003018BF012040422D
:1029F00010BD4FF0FF3010BD10B58AB001A8FFF731
:102A0000C9F948B94FF4967002F052FC01A9044686
:102A1000FFF724FF204600E000200AB010BD08B5F3
:102A20000846FFF773FA003018BF0120404208BD86
:102A300008B54FF40072002100F51170FFF7C8FBD4
:102A4000003018BF0120404208BD08B508461146B5
:102A5000FFF73CFB003018BF0120404208BD08B51D
:102A60000846FFF707FA003018BF0120404208BDB2
:102A700070B50546ADF5D46D0E460430144607F02A
:102A800037FC05F5117233461F4986A809F09CF8FA
:102A9000A50705D414F0010F14BF0222012200E0A3
:102AA0000322A00505D561054CBF42F0080242F0A3
:102AB000100286A996A8FEF761FE00BB230703D586
:102AC000999996A8FFF7CEF80DF27C454FF409725C
:102AD00096A9284608F0A4FD4FF40A7002F0E8FB1E
:102AE0004FF4067204460DF59161684608F098FDB2
:102AF00095E80E002046FFF729FF204600E0002061
:102B00000DF5D46D70BD00BFC476010810B5054B3E
:102B100003602833044640F8043F07F00BFC2046CE
:102B200010BD00BF30760108A0F10400EEE700BF41
:102B300010B50446FFF7EAFF204602F0D5FB204619
:102B400010BDA0F10400F3E707B501A807F05AFC97
:102B500001A808F057FB8168C2680368C90241EA0E
:102B60000241426841EA4211022293FBF2F341EA38
:102B7000030243690069503B42EA4363013043EA80
:102B8000405003B05DF804FBF8B50546134B45F81B
:102B9000043B0446012228460F4607F0ADFB104BCC
:102BA0002360543363600F4B1E6826B139460E48CC
:102BB00007F0DCFA0FE01C60302384F8443284F81C
:102BC0004562284607F094FB324604F5117104F182
:102BD0001400FEF7ABFD2046F8BD00BF04870108D6
:102BE000687601084C0C0020CB7601080A4B10B522
:102BF000036054334360094B1A689042044606D17F
:102C0000002200F5117110461A60FEF78FFD204674
:102C1000FFF77CFF204610BD687601084C0C0020B1
:102C200030B5074D04460023221A914205DD14F801
:102C3000012B82EA4303EB5CF6E7184630BD00BF88
:102C40000079010830B5094D04460023221A91424B
:102C500009DD14F8012B82EA132235F8122082EAEA
:102C600003239BB2F2E7184630BD00BF007701088E
:102C7000034610B107C983E80700704770474268F0
:102C80000368806812F0010F4FEA620218BF815892
:102C9000104418BFCB58184710B50446044B40F8F1
:102CA000C43BD4F8D0300BB19B689847204610BD88
:102CB000B085010810B50446FFF7EEFF204602F08C
:102CC00013FB204610BD38B5D0F8BC3301330446A1
:102CD00024D0D0F8C83313F0020500F55B700FD094
:102CE00006F0C4FED4F8BC33984217D1D4F8C833E8
:102CF00023F00203C4F8C833042384F8C43338BD76
:102D000006F0B4FED4F8BC3398421FBFD4F8C833E1
:102D100084F8C45343F00303C4F8C83338BD10B576
:102D20000446FFF7D0FFD4F8C80310BD08B5FFF77D
:102D3000CAFF08BDF8B500F51275044628460F46CF
:102D400006F012FC04F51A76FF21304607F0B6F8BB
:102D5000C4B224B9284606F051FCB842F4DB284638
:102D600006F029FC284606F052FC201C18BF012062
:102D7000F8BDD0F85833D0F850231A60FF2100F581
:102D80001A7007F09BB838B5D0F85C33D0F85023F0
:102D90001A600446FF2100F51A7007F08FF84FF40F
:102DA000FA712046FFF7C6FF054610B92046FFF727
:102DB000E0FF284638BD10B50446FFF7E4FF20B118
:102DC0002046FFF7D6FF002010BD012010BD2DE9E1
:102DD000F04F87B01C46130E0093C2F307430193D4
:102DE000A1F1560AC2F307230293A1F1690B5FFA1E
:102DF0008AF307460D4690464FF0030903935FFAA6
:102E00008BFB039B012B16D9BBF1010F13D99DF846
:102E100000308DF811309DF804308DF812309DF897
:102E200008308DF8133097F8C5338DF810508DF8B1
:102E3000148093B115E000231A4677213846FFF736
:102E4000C6FF012877D83846FFF793FF3846FFF7CB
:102E50009AFF0028DBD1FF206DE005F0F703402B3F
:102E600009D1052104A8FFF7DBFE400040F0010076
:102E70008DF8150002E001238DF815304FF0000A9F
:102E800007F51A7604AB304613F80A100AF1010A66
:102E900007F014F8BAF1060FF4D14C2D03D1FF213D
:102EA000304607F00BF84FF0090AFF21304607F0D3
:102EB00005F8030605D45FFA80FABAF1FF0F04D1D2
:102EC00038E0BAF1010AF0D1F5E71AF0080F2DD178
:102ED000BAF1010F2ED84D2D05D15CB3FF2130463C
:102EE00006F0ECFF20E0482D01D07A2D22D10CB362
:102EF000FF21304606F0E2FF00062060FF21304649
:102F000006F0DCFF226842EA00402060FF213046E4
:102F100006F0D4FF226842EA00202060FF213046FC
:102F200006F0CCFF22681043206003E0B9F10109EC
:102F30007FF467AF504607B0BDE8F08FF8B505469F
:102F40000C4616461F46FFF71EFF58B121463B466A
:102F500032462846FFF73BFF04462846FFF709FFA5
:102F60002046F8BDFF20F8BD2DE9F84300F51274A6
:102F7000074620460E46904606F0F6FA07F51A7503
:102F8000FF21284606F09AFF5FFA80F9B9F1FF0F9A
:102F900005D1204606F032FBB0F5FA7FF0DB204683
:102FA00006F009FB204606F032FBB9F1FE0F43D1D3
:102FB00097F8C633DBB100221021284606F040FF07
:102FC000002444454FF6FF71284607DA06F076FFE5
:102FD00003123355331902345870F2E706F06EFFCE
:102FE000002284B20821284606F02AFF15E0344664
:102FF000A31B98454FF0FF01284604DD06F05EFF55
:1030000004F8010BF4E706F059FFFF2104462846B7
:1030100006F054FF40EA042084B297F8C53343B168
:1030200041463046FFF70EFE231A58425841BDE88C
:10303000F8830120BDE8F8830020BDE8F8837FB560
:10304000D0F8C833DB0704464DD403252046FFF7EC
:103050009AFE002844D000231A4649212046FFF753
:10306000B6FEE8BB102269462046FFF77DFF064604
:103070002046FFF77EFE8EB39DF800309DF80700D6
:103080009B11012B0AD1BDF80810000449BA00F4C5
:103090007C1089B208430130800225E09DF80820A9
:1030A0009DF8063092099B0242EA800203F44063D5
:1030B0009DF8090013435A1C40009DF80A3000F0A7
:1030C000060040EAD310023002FA00F39DF8050032
:1030D00000F00F0003FA00F0400A05E0013DB5D111
:1030E0002046FFF746FE002004B070BD90F8C533BF
:1030F0002DE9F04106460D46904633B14FF400717C
:103100002846FFF79FFD074601E04FF6FF774FF493
:10311000FA713046FFF70EFEE0B306F51A74414629
:10312000204606F0CBFE96F8C633DBB10022102114
:10313000204606F085FE0026AB19A95D5B78204687
:1031400043EA0121023606F0B9FEB6F5007FF3D15D
:103150003946204606F0B2FE00220821204606F03D
:103160006FFE11E06E1E05F2FF1516F8011F2046D6
:1031700006F0A4FEAE42F8D13912204606F09EFEBB
:103180003946204606F09AFEFF21204606F096FEBC
:1031900000F01F00BDE8F0812DE9F84304468946A0
:1031A00017461D4600262046FFF7EDFD804650B32A
:1031B00094F8C433032B14BF7A023A4600235221F9
:1031C0002046FFF704FEF0B94FF40072494620464E
:1031D000FFF7CAFE08B9013608E0013D07F1010713
:1031E00009F500794FF00006EED12E4600231A466D
:1031F0004C212046FFF7EBFD28B92046FFF7B9FD2B
:1032000035B1022ECFDD2046FFF7B3FD4FF00008A9
:103210004046BDE8F8832DE9F047D0F8C84314F0E4
:10322000010405468946174630D1012B05D9FFF721
:10323000B3FF80F00100C4B229E04FEA4228032620
:103240002846FFF7A0FD20B92846FFF792FD01248C
:103250001DE095F8C4230023032A0CBF3A464246DA
:1032600051212846FFF7B3FD0028EDD14FF400723D
:1032700049462846FFF778FE82462846FFF779FD43
:10328000BAF1000F03D1013EDAD1DDE70324204675
:10329000BDE8F0872DE9F74F04468B4617464FEA05
:1032A000422A03262046FFF76EFD054650B394F8E8
:1032B000C4230023032A0CBF3A4652465821204615
:1032C000FFF785FD8046E8B9FE2259462046FFF704
:1032D0000DFF81462046FFF74CFDB9F10A0F0FD0D4
:1032E000B9F10C0F0ED094F8C7638EB101AB424612
:1032F0004D212046FFF722FE20B9019B13B906E0BD
:10330000013ECFD12046FFF734FD002500E03546D1
:10331000284603B0BDE8F08F2DE9F74F05468946F2
:1033200092469B461C4616468846002795F8C433AD
:10333000012B04D12846FFF726FD48B975E000238C
:10334000224657212846FFF7F9FD0028F2D06CE00D
:1033500095F8C433032B14BF72023246002359215F
:103360002846FFF734FD00285FD1FC22414628465D
:10337000FFF7BCFE0528064601D0013706E0013CF8
:1033800008F500784FF00007EFD127464FF4FA71A7
:103390002846FFF7CFFC8046002846D0ACB9FD2177
:1033A00005F51A7006F08AFD2846FFF7E2FC95F84D
:1033B000C763002E45D001AB22464D212846FFF7BA
:1033C000BDFD90BB019B83BB35E000231A464C2119
:1033D0002846FFF7FCFC044638BB2846FFF7C9FC2B
:1033E0000A2E22D195F8C433012B28D02846FFF7A6
:1033F000CAFC20B32346224656212846FFF7E7FCA5
:1034000040B904220DEB02012846FFF7ADFDA0B143
:10341000019C24BA2846FFF7ACFC022F09EB442894
:1034200004EB0A06C4EB0B0480DD2846FFF7A1FC81
:103430004FF0000805E0B04603E00446EAE7002448
:10344000EBE7404603B0BDE8F08F38B5D0F8C8438D
:1034500014F0010F0CD164070CD4012B02D9FFF733
:103460005BFF01E0FFF716FF80F00100C0B238BD3E
:10347000032038BD022038BD70B5044690B0032546
:103480002046FFF780FC20B92046FFF772FC0020A1
:103490001CE000230E4A46212046FFF798FC002836
:1034A000F2D1402269462046FFF75EFD06462046DF
:1034B000FFF75FFC3EB19DF8100000F00F00431EC7
:1034C0005842584102E0013DDAD1DDE710B070BD4D
:1034D000F1FFFF80F0B58BB0044602A806F0A8F813
:1034E0002046FFF7F0FBD4F8C803860700F1FB8005
:1034F000C50740F1F88004F51A757C49284606F0A6
:10350000C1FC0327D4F85833D4F850231A600A2694
:10351000FF21284606F0D2FC013EF9D1324633465F
:1035200040212046FFF70AFD0128024602D0013F54
:10353000E8D1ACE094F8C5333BB133467B2120465B
:10354000FFF7FCFC012840F0A28001AB4FF4D572DC
:1035500048212046FFF7F2FC012826D1019BC3F346
:103560000B03B3F5D57F40F0928001AB00227A21A6
:103570002046FFF7E3FC012840F08980019BD90237
:1035800040F1858002A805F0EFFF0023584A692129
:103590002046FFF7D3FC0128064612D102A806F008
:1035A0002DF8B0F5FA6FF0DB0BE001AB00227A21C9
:1035B0002046FFF7C3FC012869D1019BDB0266D5D9
:1035C0006BE002A805F0F7FF02A806F020F8002E35
:1035D0005DD101AB32467A212046FFF7AFFC0028CF
:1035E00055D1019BD4F8C013424E5A004CBF03235F
:1035F0000223B14284F8C43328DD2046FFF73CFFA4
:1036000018B1D4F8C0333C491DE031461EE002A891
:1036100005F0F4FFB0F5FA6F08DA0023344A6921A7
:103620002046FFF78BFC01280646F0D002A805F0E3
:10363000C2FF02A805F0EBFF9EBB022384F8C4334F
:103640002C49D4F8C0338B42D8BF1946284606F01F
:1036500019FC94F8C433012B06D000231A466A21C2
:103660002046FFF76BFC90B994F8C433032B07D0C6
:1036700000234FF4007250212046FFF75FFC30B961
:10368000D4F8C80320F00100C4F8C8032BE00423D9
:1036900084F8C433D4F8C80325E002A805F064FF19
:1036A000BBE702A805F060FF00234FF48012412120
:1036B0002046FFF743FC0128064605D102A805F085
:1036C0009DFFB0F5FA6FEFDB02A805F074FF02A8CA
:1036D00005F09DFF002EDAD1012384F8C433074999
:1036E000D4F8C033AFE70BB0F0BD00BF801A0600BE
:1036F0000000104040787D0180F0FA02002D310179
:10370000C36810B504460BB19B689847204610BDAE
:1037100070B586B08DE80C000E46054606F09EFD9D
:10372000009B0293019B039302A9064B0593284635
:10373000049606F031FA02A8FFF7E2FF06F0BAFDA0
:1037400006B070BD007A010870B586B08DE80C0037
:103750000E46054606F082FD009B0293019B0393F3
:1037600002A9064B05932846049606F0EFF902A835
:10377000FFF7C6FF06F09EFD06B070BD007A010897
:103780002DE9F04F8BB00D4615999DF85C800446ED
:1037900091461E46FFF7F8F9444A226054326260AF
:1037A00004F51A7B04F512704FF0FF3A05F040FF64
:1037B000334629464A4604F55475CDF800A05846CC
:1037C00006F0AEFB1C220021284608F027F8012253
:1037D0002846BDF9501004F55B7505F0B2FEBDF941
:1037E0005810284606F068F90127189BC4F8C03322
:1037F00000263946484684F8C46384F8C57384F8C3
:10380000C66384F8C773C4F8C87301F009FF0322C4
:103810000821584606F014FBB8450BD10221284672
:1038200006F017F9224B0293039602ABC4F8BC834F
:103830000CCB2FE0B8F1020F0AD14146284606F022
:1038400008F91B4B0493C4F8BC63059604AB0CE069
:10385000B8F1030F0FD13946284606F0FAF8144B99
:103860000693C4F8BC63079606AB0CCB21462846EA
:10387000FFF76AFF15E0B8F1040F10D1394628466A
:1038800006F0E7F80A4B089309960AAB13E90C0017
:10389000C4F8BC7321462846FFF73AFF01E0C4F89C
:1038A000BCA320460BB0BDE8F08F00BF147A01081E
:1038B0002D2D000810B50446FFF78BF8D4F8C83357
:1038C00043F00103C4F8C833042384F8C433002050
:1038D00010BD00000A4B10B503F108025C3304462A
:1038E0000260436000F55B7006F0C8F804F51A70DA
:1038F000FFF7D2F92046FFF779F9204610BD00BF47
:103900000C7A0108A0F10400E4E700BF10B50446FA
:10391000FFF7E0FF204601F0E7FC204610BDA0F1D4
:103920000400F3E738B504460D4606F097FC204640
:10393000294601F0D9FF06F0BDFC204638BD13B57D
:1039400004460846019111F0D9FD0022002312F02F
:10395000B7F818B106F082FC002114E006F07EFCF6
:10396000DDED017AF8EEE77AB7EE007AC7EE276A66
:10397000204616EE901A02F033F806F09BFC06F093
:103980006DFC4FF07C51204601F094FE02B0BDE882
:10399000104006F08FBC034610B107C983E807004A
:1039A0007047704742680368806812F0010F4FEA61
:1039B000620218BF8158104418BFCB581847F8B599
:1039C000044672B600F14C06304606F0F9FD802838
:1039D000E06640F0BD8004F16C0504F188073046D4
:1039E00006F0EEFD45F8040FBD42F8D1226F636F7B
:1039F00003EB0223D907C4F88C3009D5D4F89420FE
:103A0000D2075EBFD4F8902042F00102C4F89020A3
:103A10009F0709D5D4F8942096075EBFD4F890206C
:103A200042F00202C4F890201D0709D5D4F8942072
:103A300010075EBFD4F8902042F00802C4F890202E
:103A4000590709D5D4F8942052075EBFD4F89020C6
:103A500042F00402C4F89020DF0609D5D4F894207F
:103A6000D6065EBFD4F8902042F01002C4F8902031
:103A70009D0609D5D4F8942090065EBFD4F8902016
:103A800042F02002C4F89020590609D5D4F89420B9
:103A900052065EBFD4F8902042F04002C4F8902055
:103AA000DF0509D5D4F89420D6055EBFD4F8902060
:103AB00042F48072C4F890209D0509D5D4F8942072
:103AC00090055EBFD4F8902042F40072C4F89020B4
:103AD000590509D5D4F8942052055EBFD4F890203A
:103AE00042F48062C4F890201F0509D5D4F89420D0
:103AF00016055EBFD4F8902042F40062C4F890200E
:103B0000DD0409D5D4F89420D0045EBFD4F8902009
:103B100042F48052C4F89020990709D0D4F8942038
:103B2000920702BFD4F8902042F00302C4F890201C
:103B300013F00C0F0AD0D4F8942012F00C0F02BF2F
:103B4000D4F8902042F00C02C4F89020C4F89430CD
:103B500062B6F8BD13B54FF4165304460093002324
:103B600005F088FE4FF4E133A3660023C4F88C30DF
:103B7000C4F89030C4F894304023A367E367C4F8D6
:103B80008030C4F88430034807F0ACFE204602B011
:103B900010BD00BF7C7A0108816670471FB5816E39
:103BA000044605F0ABFE094B00930022084B03933B
:103BB000694620460192029405F014FF039B13B15D
:103BC0009B686846984704B010BD00BFBF39000825
:103BD000707A01082DE9F043044687B00D4600F0E5
:103BE00095FAC4F8905104F5CA758023162217215E
:103BF000284604F51C78FCF7E3FB04F5227706F071
:103C00002DFB0321404601F06FFE06F053FB06F04A
:103C100025FB0121384601F067FE04F52F7606F0FA
:103C200049FB082104F52970FFF77CFE1C220021C6
:103C3000304607F0F3FD4FF0FF3930460C2104F514
:103C4000367605F08EFC132314221521CDF8009052
:103C5000304606F065F90622314604F57070FCF72F
:103C600071FB0722314604F57B70FCF70BFB214BFF
:103C7000049300230393204B01930B2300931422FE
:103C800013231521CDF8089004F58360FFF778FD24
:103C9000D4F8C832D4F8BC221A60122001F014FB08
:103CA0000122C4F8A00200EB0903113003F8012F30
:103CB0008342FBD12846FCF7BCFB28467921FCF760
:103CC000BAFB28460D49FCF783FB06F0C7FA4046CD
:103CD000142101F093FE06F0EDFA06F0BFFA384623
:103CE000142101F08BFE06F0E5FA204607B0BDE88E
:103CF000F08300BF40420F00927A0108801A06004C
:103D0000D0F8A0329FED147A5B5C82B007EE902A67
:103D10000BB977EE677ADFED116A77EEE67A00226B
:103D2000C7EE876AC9B200F5CA70F0EE007AB7EE46
:103D3000087AA6EEA77AF3EE046AC7EE267A9FED1C
:103D4000087A67EE877AFDEEE77ACDED017ABDF865
:103D5000043002B0FCF797BB000034430000B442CB
:103D600000F07F45D0F8A0329FED187A5B5C13B568
:103D700007EE902A04460BB977EE677ADFED146AF6
:103D800077EEE67A1029C7EE876AF7EE087AB0EE8A
:103D9000007AE6EE877AFDEEE77ACDED017A07D07C
:103DA000112911D106F05AFA019904F5227004E0A4
:103DB00006F054FA019904F51C7001F032FE02B0CD
:103DC000BDE8104006F076BA02B010BD00003443E2
:103DD0000000B44207EE902A9FED0E7AF4EEC77A07
:103DE000F1EE10FA09DAF5EE407A9FED0B7AF1EE7A
:103DF00010FA48BFF0EE477A01E0F0EE477A112959
:103E000007D80F2917EE902A01DCFFF779BFFFF7DB
:103E1000A9BF704700003443000000002DE9F047BF
:103E2000002307460C46ADF50A6D184640F698018A
:103E300002AD00221D44A85401326E2AFBD16E331C
:103E40008B42F5D1414806F00BFB002C7ADBD7F80A
:103E500090319C4276DC40F2FF113D4801F091F92F
:103E60003C493D4806F042FE804608B93B4867E0C1
:103E70003B4807F037FD00254FF001092E46AA46C2
:103E80000DF107023749404606F038FE9DF807302D
:103E90000A2B05D1B9F1000F05D18DF8079004E088
:103EA0004FF0010901E04FF000099DF8074094B977
:103EB0004FF06E09AC421EDA02AB09FB043607EB89
:103EC000C400314600F040F921463246264807F04A
:103ED00009FD0134EEE76E2302AA03FB05230A2C39
:103EE00015BF9C550135013603F806A012BF76B206
:103EF0006DB20026C4E73C4607F5C479204600F0C1
:103F000066F90646C0B14C4516D000252946204624
:103F100000F063F907EE900AF8EEE77A294617EE0B
:103F2000902A38460135FFF755FF122DEED1304665
:103F300006F0A4FA0834E1E7404606F0BBFB0B4864
:103F400007F0D0FC0DF50A6DBDE8F0879A99993E0F
:103F5000957A01089D7A01089F7A0108B47A0108D0
:103F6000C57A0108D37A0108D67A0108E57A0108F2
:103F700000F52970FFF7E3BCD0F8C432D0F8BC22BA
:103F80001A60704770B50546094B45F8283B064650
:103F90005DB100F14804AC4207D0103CE368002B4F
:103FA000F9D09B6820469847F5E7304670BD00BFC2
:103FB0002885010810B50446FFF7E4FF204601F00C
:103FC00093F9204610BD000008B54FF4E1311048C8
:103FD000FFF7E2FD0E48FFF7E1FD4FF07C5006F0E1
:103FE0003FFA00210B48FFF7C3FF0A48FFF7C4FF61
:103FF000094807F077FC00210648FFF70FFF074844
:1040000007F070FC4FF07E5006F02AFAF3E700BF8D
:1040100038140020500C0020F47A0108097B0108B4
:10402000C36810B504460BB19B689847204610BD85
:1040300010B5084B036003F120027C330446C264D0
:1040400003654C3006F0AAFA2046FFF79BFF204696
:1040500010BD00BF10840108A0F14C00E8E7A0F1FA
:104060005000E5E710B50446FFF7E2FF204610BD1B
:1040700010B50446FFF7DCFF204601F035F9204675
:1040800010BDA0F14C00F3E7A0F15000F0E70000F4
:1040900038B50C4C0C4D0F2202212046FFF75AFD7B
:1040A00020460A4C0A492A4601F0C4F8012120465C
:1040B000FFF790FD2A4620460649BDE8384001F04A
:1040C000B9B800BF3814002000000020500C0020B8
:1040D00065400008D940000810B5044600F583602B
:1040E000FFF7F8FB074BC4F8D83204F56770FFF709
:1040F00097FF054BC4F8983104F5CE70FFF790FF99
:10410000204610BDB0850108F883010870B505464A
:10411000044600F5C8762046083400F004F8B4429E
:10412000F9D1284670BD38B5002405460480142016
:1041300001F0CAF8234668605A216A68D1540133F5
:10414000142BFAD1284638BD2DE9F7430024074641
:1041500000948DF8044001F1FF3801F2E736234660
:10416000A14618F8015F0A2D2ED002AA2C2D1A4460
:1041700006D012F8080C284402F8080C013321E09C
:10418000684602F8089C06F049FAB7F900305BB9B6
:1041900038808DF800308DF801308DF802308DF8C0
:1041A00003308DF804300DE07B68185501348DF82C
:1041B00000908DF801908DF802908DF803908DF8A5
:1041C00004900023B045CCD103B0BDE8F083034692
:1041D0000022B0F900001A80704713299ABF436883
:1041E000585C002070470000384B5A692DE9F041B7
:1041F000374CD20723602AD59868364F9968364ED7
:104200009A68364D3840B84201EA060104BF0127DA
:104210009F60B14208BF2D4B02EA050204BF4FF474
:1042200080769E60AA4202BF284B4FF480359D6085
:10423000284B984205D0284B994202D0274B9A42EE
:1042400005D1274B274A1B6810680121984723682E
:10425000DA685B69970707D09E0705D5204B214A8E
:104260001B68106800219847236899695A695B693F
:104270008D0709D5900507D5190405D5184B194A9E
:104280001B6810680521984722689669556952692C
:1042900016F0040605F4806508D03DB1120405D57A
:1042A0000F4B104A1B6810680721984723685B6909
:1042B00056B14DB11B0407D5094B0A4A1B6810685B
:1042C0000221BDE8F0411847BDE8F08100640040DC
:1042D000D0140020030000040003000800000310B5
:1042E0001415002010150020FFF77EBFFFF77CBFDC
:1042F0001FB5072838D8DFE800F004131F37373719
:10430000372B1C4BDA6C42F00102DA64DB6C03F0F1
:1043100001030093009B4FF0904005B05DF804FB53
:10432000144B1548DA6C42F00202DA64DB6C03F0DD
:1043300002030193019BF0E70E4B1048DA6C42F048
:104340000402DA64DB6C03F004030293029BE4E7EB
:10435000084B0B48DA6C42F08002DA64DB6C03F045
:1043600080030393039BD8E7064805F0FFFE002077
:10437000D3E700BF001002400004004800080048D6
:10438000001C0048247D0108431C10B5044604D1DC
:1043900074220649064805F0FFFE2046002101F080
:1043A000A7F804F00F040120A04010BD457D0108CE
:1043B000A37D010870B504464B1C0E46218218D01F
:1043C000C1F30310FFF794FF05463046FFF7DCFF0B
:1043D000238A084A656103F00F03206052F82330F6
:1043E000A36105F11003636005F118032835A3608C
:1043F000E56070BD40800108B0F9100001F010B90F
:1044000010B58369446971B9216893FAA3F2B2FACD
:1044100082F20320520000FA02F221EA020293FA29
:10442000A3F3226010BD226893FAA3F1B1FA81F1DF
:1044300093FAA3F30320490000FA01F1B3FA83F3DE
:1044400022EA01025B00012101FA03F31343236016
:1044500010BD00004C22F0B54243184EDFF868C092
:10446000131D3344074600244FF0010E16448C42BE
:1044700005D139461248BDE8F04005F077BE3268F4
:104480000EFA04F5154216D01A6BDCF814000EFA79
:1044900002F202420FD09D69CCF81420186850B186
:1044A0002B691A42074B08BF02211B6818BF012164
:1044B000BDE8F040184701340433D8E71815002050
:1044C000DD7D01082C17002000040140062108466C
:1044D000FFF7C0BF05210846FFF7BCBF012104203C
:1044E000FFF7B8BF01210320FFF7B4BF012102206D
:1044F000FFF7B0BF01210846FFF7ACBF0121002044
:10450000FFF7A8BF012910B518D11B4C838952B100
:10451000A26803F00F0399401143A160836843F040
:104520000103836010BDA26803F00F03994022EAE3
:104530000101A160836823F00103F2E70229F1D1B0
:104540000D4983895AB1CC6803F00F03012202FAA6
:1045500003F32343CB60836843F00203E1E7CA68B7
:1045600003F00F03012404FA03F322EA0303CB60F0
:10457000836823F00203D4E700040140B0F90C3053
:1045800099B270B501F00F0606F00C0404F18044F6
:1045900004F5803401F00301A56889000F228A40E8
:1045A000C3F3031325EA02058B402B43A3600F4B93
:1045B00001221968B240114319608468E50742BFBF
:1045C000996811439960A10742BFD9680A43DA602C
:1045D00090F90030002B08DB5909012203F01F037A
:1045E00002FA03F3024A42F8213070BD0004014090
:1045F00000E100E02DE9F04F92464A1C85B080466C
:104600000C4664D0334A344F116E41F001011166FB
:10461000126E02F001020392039A04F00F090C22B9
:1046200002FB0972C4F303105568062D47D8DFE872
:1046300005F0043A3C3E40424400284E0193FFF707
:1046400057FE0C2101FB09F17A1857F801E0244FBD
:10465000A8F80C404C21694301247B5892F90820AA
:10466000C8F8045004FA0EF44FF0000B1C4388F80D
:104670000020C8F808B07C50132101FB05E507EBCA
:104680008501019B4B60174BC861C3F800A0164B16
:10469000C1F834909B681032404643F82260FFF71F
:1046A0006DFF584610E0114EC8E7114EC6E7114E97
:1046B000C4E7114EC2E7114EC0E7114EBEE71148E4
:1046C00005F054FD4FF0FF3005B0BDE8F08F08460F
:1046D000FAE700BF00100240087E0108FD44000810
:1046E000181500202C17002000ED00E0F54400080C
:1046F000ED440008E5440008DD440008D544000806
:10470000CD440008B67D01088389184A03F00F03E1
:10471000012110B501FA03F39468DB431C40946057
:10472000D4681C40D46014682340136090F90030B2
:10473000002B0CDB5A0903F01F0301FA03F32032AC
:104740000B4941F82230BFF34F8FBFF36F8F90F9C1
:104750000030002B09DB5A09012103F01F0301FA85
:1047600003F36032024941F8223010BD00040140D9
:1047700000E100E0838903F00F020C235343104A49
:1047800070B54468D658FFF7BFFF4C210D4A61430E
:10479000012000FA06F55058132303FB046320EAB6
:1047A0000500505002EB830000214160981D0C333E
:1047B00002EB800002EB83034160596070BD00BFD3
:1047C000087E01081815002070B5134C23681A697B
:1047D000950707D5DA68900704D56FF002021A61D1
:1047E00005F064F823681A69510713D5DA6852078F
:1047F00010D56FF00402094E1A615D6A3368EB1A36
:10480000B3F57A7F06D301F01FFC236805F57A72B1
:104810009A63356070BD00BFB81C002030170020BF
:1048200030B589B001A903A802F06EFE02F03CFE8B
:10483000254B01909A6D254C42F001029A659A6DC4
:1048400002F001020292029A9A6B42F001029A630C
:104850009A6B22F001029A63069A4FF0804323601C
:104860004FF0FF33E3601A4B002A2AD1B0FBF3F07C
:1048700001380025606015482561A560656104F078
:104880005BF8144B144A9B681048C3F8B020134BD4
:104890004FF080521A60294604F06AF904210B484F
:1048A00004F066F923680E4A596A1160126802F52D
:1048B0007A729A63DA68284642F00402DA6009B034
:1048C00030BD4000D2E700BF00100240B81C0020FD
:1048D00040420F0000ED00E0C947000800E100E0A1
:1048E0003017002010B5054B9C68204601F072FD82
:1048F0002046BDE8104002F044B900BF3417002044
:1049000010B5054B1C68204601F064FD2046BDE84B
:10491000104002F036B900BF3417002070B590F98E
:104920005C20254C90F95D30A56802F1100645F831
:10493000261003F11006A56845F8261090F86C10B3
:1049400000290CBF02210121002A4FEA01110EDBD0
:104950001A488518CCB2002B85F800431EDA03F004
:104960000F041748C9B2002A01551ADA70BD02F0C7
:104970000F0004380444CDB2002B2576EFDB03F1A1
:10498000604202F5614282F8005303F01F025909A8
:1049900001239340094A42F8213070BD184480F841
:1049A000004302F01F01500901228A400349002BF5
:1049B00041F82020E9DA70BD00ED00E000E100E000
:1049C00014ED00E010B590F95D4090F95C0001F045
:1049D0005BFB2046BDE8104001F056BB90F850301C
:1049E000011D3BB1022B044818BF0020034A42F8C6
:1049F000231070470248F9E7E54800083417002003
:104A000001490008144B02681B68416DB3FBF1F1CA
:104A1000142342604B439169090401D5013BFAD14B
:104A20000E4B9A420AD103F5DE339A6B42F4001220
:104A30009A639A6B22F400129A637047084B9A4269
:104A4000FBD103F5DA339A6B42F400029A639A6B56
:104A500022F40002F0E700BF0800002000540040EC
:104A6000005C0040F8B5404F426D3B68B3FBF2F28A
:104A700014235343426804460D46061D91690904F8
:104A800001D5013BFAD1394B9D420BD0384B9D42A9
:104A900008D0384B9D4205D04FF4BF723649374895
:104AA00005F07AFB364B3A689A42324B40D1304A95
:104AB000954207D09D4239D0324B2C4A954218BFBF
:104AC000002300E0304BA3602A4B9D420FD12268A7
:104AD0002E4B9A4203D14FF4801002F0C3F82268A3
:104AE0002B4B9A4203D14FF4800002F0BBF82368AD
:104AF000264A93422CD102F5DE32D2F8883023F4D4
:104B0000405343F48053C2F888300021304602F00D
:104B100082F8012323610023636123626362E360FF
:104B2000A361304601F071FB6565F8BD194BCAE71A
:104B300019498A420AD10E4A954203D09D4203D0B8
:104B4000164BBAE7164BBEE7164BBCE70023BAE795
:104B50000F4A9342D9D102F5DA32D2F8883023F4E1
:104B6000403343F48033CEE708000020A0860100E4
:104B7000801A060040420F00C87E0108257F010808
:104B800000B4C4046B4EC1303A14D110005400403C
:104B9000005C0040270E8100006CDC02553EA02026
:104BA000210C801016085000F7B50E460446434904
:104BB0003046154605F0D6F841490746284605F027
:104BC000D1F8A4F858600146A4F85A50384605F0C8
:104BD000ABF82060013005D140F20D1239493A4856
:104BE00005F0DAFA2268394B9A4225D1002384F87D
:104BF000503003F1804303F5043330499A6D42F499
:104C000000129A659B6D03F4001300933046009BDD
:104C100005F06CF82A49284605F068F8032130466B
:104C200000F0FEFC0321284600F0FAFC1F2384F864
:104C30005C30202384F85D302268254B9A4222D1D3
:104C4000022384F85030234B1C499A6D42F4000231
:104C50009A659B6D03F4000301933046019B05F0B8
:104C600045F81749284605F041F80321304600F081
:104C7000D7FC0321284600F0D3FC482384F85C309D
:104C8000492384F85D30636D0BB9134B636520468F
:104C9000FFF7B8FE616D2046FFF7E4FE00234FF0FA
:104CA000007284F86D3084F86C3084F86E302266BF
:104CB00084F86430A36603B0F0BD00BF447B0108F4
:104CC000147B0108C87E0108597F01080054004088
:104CD000005C004000100240A08601002DE9F34175
:104CE0000F46016EB1F1007F1E4604469046089BB8
:104CF00000F104053BD10BB14FF000732366002394
:104D000084F864302046FFF769FE01462046FFF72D
:104D100005FE236E00934246B3B2B9B2284601F0B5
:104D200005FBF0B9184B1D68636DB5FBF3F31E2549
:104D300006FB05555D4394F8643013F01E0F01D156
:104D4000013D1CD12046FFF73DFE1DB194F86430B3
:104D5000082B08D0B4F95A20B4F958102046FFF7B0
:104D600023FF6FF00106304602B0BDE8F08131F05C
:104D70008072C4D1002BBFD14FF08073BEE70120F9
:104D800005F062FBD7E700BF080000202DE9F341E2
:104D90000F46016EB1F1007F1E4604469046089B07
:104DA00000F104053BD10BB14FF0007323660023E3
:104DB00084F864302046FFF711FE01462046FFF7D5
:104DC000ADFD236E00934246B3B2B9B2284601F05E
:104DD0006DFAF0B9184B1D68636DB5FBF3F31E2532
:104DE00006FB05555D4394F8643013F01E0F01D1A6
:104DF000013D1CD12046FFF7E5FD1DB194F864305C
:104E0000082B08D0B4F95A20B4F958102046FFF7FF
:104E1000CBFE6FF00106304602B0BDE8F08131F004
:104E20008072C4D1002BBFD14FF08073BEE7012048
:104E300005F00AFBD7E700BF08000020836F07B525
:104E4000BBB1D0F88830A3B190F8702072B14FF0A8
:104E50000072C265C26DB0F86C1000929BB2D0F8BF
:104E6000842001F063FA03B05DF804FB4FF0807218
:104E7000EFE7082380F86030F5E7082380F860301A
:104E8000704738B5051D0446C260284601F0BDF9DB
:104E90002046FFF7A3FD01462046FFF73FFD2846C9
:104EA000BDE8384001F082BA70B590F86850044609
:104EB000061F05B18568B4F95620B4F95410304680
:104EC000FFF772FE45B1012384F8683000232A46BB
:104ED00019463046FFF7D5FF022384F8603070BDD5
:104EE000012902D180F86910704711B9012380F8B7
:104EF0006A307047002380F869307047002380F8DB
:104F00006A30704701F052BA10B5044650F80429CF
:104F1000136823F0FE031360FFF754FD022384F8A7
:104F2000603010BD08B505F099F9962005F0A6FA95
:104F3000962005F0A3FAF8E770B50D46A0B0044638
:104F400005F08CF92B462246802168460BF0DCFAEE
:104F5000051E03DC05F0AEF920B070BD094B1B68DF
:104F600023B90F220221084800F0E4FE064E002477
:104F70001DF804103046013401F00CF8A542F7D1B9
:104F8000E8E700BFD8180020901C00200FB407B538
:104F900004A951F8040B0191FFF7CEFF03B05DF8AF
:104FA00004EB04B0704708B504F0FEF901F041F8D5
:104FB00004F0F4F9BDE8084004F0F6B908B5084B70
:104FC0001B685BB9022107480F2200F0B3FE4FF4C3
:104FD00016510448BDE8084000F050BF08BD00BFAE
:104FE000D8180020901C0020022810B501DC0020F9
:104FF00010BDC31E0B4A52F82300002142F82310B3
:1050000030B905F00FFB092303604FF0FF3010BDEE
:1050100003685B699847041EE9DA05F003FB644204
:105020000460F2E7481700200228F8B50D46144640
:105030000EDC134B1B680BB9FFF7C0FF114E2F1985
:10504000BD4210D015F8011B304600F0A3FFF7E772
:1050500003380D4B53F8200038B905F0E3FA092363
:1050600003604FF0FF342046F8BD0368DB689847C3
:10507000041EF8DA05F0D6FA63420360F3E700BFD6
:10508000D8180020901C002048170020022810B5D6
:105090000C460BDC104B1B680BB9FFF78FFF0F485A
:1050A00000F062FF20700124204610BD03380C4B35
:1050B00053F8200030B905F0B5FA092303604FF02A
:1050C000FF34F1E703689B689847041EECDA05F0AB
:1050D000A9FA63420360E7E7D8180020901C00207B
:1050E00048170020022810B516DD03380B4B53F883
:1050F00020402CB905F096FA09230360204610BD24
:1051000023682046DB699847041EF7DA05F08AFA1F
:10511000644204600024F1E70124EFE7481700200F
:10512000022810B506DC05F07DFA1D2303604FF060
:10513000FF3010BD03380A4B53F8200018B905F0B2
:1051400071FA0923F2E703681B699847041E04DA21
:1051500005F068FA64420460E9E7204610BD00BF2C
:1051600048170020022808B504DC4FF400534B60B8
:10517000002008BD05F056FA092303604FF0FF3008
:1051800008BD73B50E460146684605F017F8684637
:1051900005F03DF8044670B103686846DD6905F026
:1051A0002BF8324601462046A847041E07DA05F0D0
:1051B00039FA644204604FF0FF3002B070BD002045
:1051C000FBE708B5012000F037F800000C4A13682F
:1051D00010B51844EFF30881884205D3094B0C221F
:1051E0001A604FF0FF3010BD07490C6824B1074921
:1051F000096821448842F1D21060184610BD00BFF2
:1052000004000020F41C0020501800205418002036
:10521000074C08B523680546986805F00DFB236820
:10522000D86805F009FB0DB1FFF77CFEFEE700BF73
:10523000480400200120704708B5FFF7E9FF01206E
:105240007047002106F010BC1FB504220C463A231B
:105250000DEB020101900DF109008DF8083006F008
:10526000DFF9214602A805F041FC044638B1019857
:105270000368DB69984710B12046FFF7E2FF20463C
:1052800004B010BD05F0EABA704770477047704728
:1052900008B5FFF7F9FF08BD08B5FFF7F6FF08BD31
:1052A00008B5FFF7F3FF08BD08B5FFF7F0FF08BD2D
:1052B00010B506F04FF9044610B9024804F056FF45
:1052C000204610BD0980010810B506F043F90446D8
:1052D00010B9024804F04AFF204610BDEA7F0108D9
:1052E00008B106F03FB97047FFF7FABF034610B5A3
:1052F00053F8042B044602B9036022689A4204D092
:105300005B220349034804F047FF206810BD00BF3B
:10531000737F0108D67F010810B504460948FFF7DE
:10532000E5FF0023084A194652F82300A04208BFAF
:1053300042F823100133402BF6D10248FFF7D6FF85
:1053400010BD00BF48180020481700202DE9FF4776
:1053500089464049064606F0A7FC044628B9FFF7EF
:105360002DFE204604B0BDE8F0873B49304606F0EC
:105370009BFC18B9FFF722FE0124F2E737493046BB
:1053800006F092FC18B9FFF719FE0224E9E7344849
:10539000344DFFF7ABFF0024A84655F82470002FCA
:1053A00040D00134402CF8D105F03CF918230360BB
:1053B0002B48FFF79BFF0EE0314602A804F0FEFEEB
:1053C00002A804F03FFF064640B905F02BF902237E
:1053D000036045F824604FF0FF34C2E702A804F0F0
:1053E0001FFF074602A81FB104F023FF01902BE026
:1053F00004F00DFF06460028E7D0036802A8D3F8A2
:1054000008A004F0F9FE29F48033024601A93046D1
:10541000D0470646C0B105F005F97642066045F86A
:105420002470D8E74FF0FF330D4845F82430FFF7DC
:105430005DFF337801973A2BBED10422711C02A87C
:1054400006F0EEF8029B0193019B48F824300334E8
:1054500087E700BF2E8001083580010826800108FB
:10546000481800204817002070477047074B08492C
:105470009A68084810B5043A52F8044F41F8044FAE
:105480008142F9D14FF080529A6010BD00ED00E0EA
:10549000FCFFFF0F8401001008B5FFF7E7FFFFF7DF
:1054A00082FDFFF7E2FF08BD08B5FFF7DDFFBDE8AD
:1054B0000840FEF789BD30B5C36891FAA1F4B4FA8B
:1054C00084F491FAA1F10325B1FA81F1640005FA9F
:1054D00004F4490023EA040302FA01F11943C1600C
:1054E00030BD012A02D0022A18BF0022FFF7E3BF15
:1054F0002DE9F0410E46411C044604D13E224449A8
:10550000444804F049FE04F00F08434BC4F3031071
:1055100053F82850FEF7ECFE06F0070704468368B0
:1055200095FAA5F1B1FA81F195FAA5F203204900A7
:1055300000FA01F1B2FA82F223EA010352000221D9
:1055400001FA02F21343A360874236D8DFE807F07E
:105550001D1D021DB8F1070FC6F3032017D9626A9B
:105560002B0A93FAA3F1B1FA81F193FAA3F34FF066
:105570000F0EB3FA83F389000EFA01F19B0022EAC1
:10558000010200FA03F3134363623B461BE0226A05
:1055900095FAA5F3B3FA83F395FAA5F14FF00F0E40
:1055A000B1FA81F19B000EFA03F3890022EA0302AB
:1055B00000FA01F313432362E7E76722144917480F
:1055C00004F0EAFD0023226895FAA5F0B0FA80F015
:1055D00095FAA5F14FF0030EB1FA81F140000EFAF1
:1055E00000F0490022EA00028B40013F1343012FE3
:1055F000236005D8636832074CBF2B43AB4363601D
:10560000C6F3011229462046BDE8F041FFF769BF05
:1056100080800108A37D010840800108C77401084B
:10562000431C70B506460D4604D188221E491F480A
:1056300004F0B2FD06F00F021D4BC6F3031053F841
:105640002240FEF755FE066894FAA4F1B1FA81F300
:1056500094FAA4F259000323B2FA82F28B40334049
:105660005200D340013B012B05D8EB1E022B4368AF
:1056700009D823434360032D08D101222146BDE808
:105680007040FFF72EBF23EA04034360012DF4D0DE
:10569000052D01D0022D01D10222EFE72146002283
:1056A000BDE87040FFF707BF80800108A37D0108B7
:1056B0004080010830B507EE101A284B02681A60C6
:1056C000B5EEC07AF1EE10FA89B0054628D4F7EEAF
:1056D000007AB4EE677AF1EE10FAC8BFB0EE677ADE
:1056E000D5ED037AF8EE677A602267EE877A019249
:1056F000FCEEE77AAA68C5ED047A17EE903AB3FBA0
:10570000F2F3029300230393059306930493079304
:105710002B7D013B032B16D8DFE803F01B0517197F
:105720009FED0F7ADCE70424224601A90B4803F021
:105730006FF910B10B4804F019FD6B7D0748214645
:105740004BB103F023FA09B030BD0824ECE70C2478
:10575000EAE70024E8E703F0EDF9F4E75818002041
:105760000000000082810108C368ABB107EE903AE7
:10577000D0ED046AB8EE677AF8EE666AC6EE877A0C
:10578000B7EE007AF4EE477AF1EE10FAC8BFF0EE09
:10579000477A17EE900A7047DFED017AF9E700BF0C
:1057A000000000002DE9F0474A4C0268226086B0F4
:1057B00000230E4600930546FFF7D6FF116A41F21B
:1057C00011131942074608D1116A40F244431942A5
:1057D00002BF136823F001031360694601A801F0BA
:1057E00093FE3D482968002380465FFA83F9013320
:1057F00050F839208A42F8D111B9384804F0B6FC83
:1058000008EBC90898F8043053BB01F04DFE009036
:10581000049800990123AB60314B30BBB1FBF3F32B
:10582000013B636006F1FF3C2D4B6268B1FBF3FE68
:105830004FEA41080021B8FBF3F8C4F80CC06346F6
:105840008A464FF6FE79B3F5803F12D2B2F5803F1B
:105850000FD2BAF1000F00D06260F1B1E3601CE03A
:1058600001F03AFE00900598D3E74A00B2FBF3F34B
:10587000D6E7AB685B00AB6030BB0EFB03F2BCFB52
:10588000F3F34B4502F1FF3221D8B2F5803F1ED32E
:1058900014486260E36004F069FC00230D48236152
:1058A000A36003F063F810B10E4804F05FFCEE60F3
:1058B00039462846FFF7FEFE2268136843F00103CD
:1058C000136006B0BDE8F08708FB03F2D7E70121BB
:1058D0008A46B8E7581800209C8101086D810108AC
:1058E00040420F00828101087FB50E4604463449CC
:1058F000304604F037FA2060013004D12E223149BD
:10590000314804F049FC2E49304604F047FA431C64
:10591000054604D132222B492C4804F03DFCC5F346
:10592000043323752A4A2368C5F3404593426575BD
:105930001AD1284B1A6E42F400621A661B6E03F4E9
:1059400000630093009B1E49304604F0CFF900230A
:10595000E36023610123A680A36044F62061204612
:10596000FFF720FF04B070BDB3F1804F0BD103F5FA
:1059700004339A6D42F001029A659B6D03F00103B6
:105980000193019BDFE7144A93420AD1114B1A6E2F
:1059900042F480321A661B6E03F480330293029B3A
:1059A000D1E70E4A9342CED10A4B1A6E42F400322E
:1059B0001A661B6E03F400330393039BC3E700BF17
:1059C000747B0108DC8001083C81010854810108D6
:1059D000002C014000100240004001400044014002
:1059E00007EE101ADFED047A67EE277AFDEEE77A0C
:1059F00017EE901AFFF7D6BE002474494FF47A735D
:105A00005943FFF7CFBE07EE901AB8EEE77AD0ED14
:105A1000037AF8EE677AC7EE276A16EE901AFFF758
:105A200049BE4FF47A735943FFF7EDBF014802F0C6
:105A30005BB900BF9418002010B5154C154B2360BE
:105A400090B002A90022204602F006F9002201A926
:105A5000204602F029F99DF80530013B0B939DF893
:105A600006300A939DF8073044330C939DF80830B4
:105A700009939DF8093008939DF80A30079307A809
:105A80004FF0FF330F9304F0D5FA10B010BD00BFF4
:105A9000941800200028004010B5194B194A1A60CC
:105AA00090B007A904F0FCFA38B30D9B03B90723A3
:105AB0008DF804300B9B124801338DF805300A9B9A
:105AC0008DF806300C9B443B8DF80730099B8DF810
:105AD00008300024089B8DF809302246079B8DF87A
